{"contracts/World3.sol":{"World3":{"abi":[{"inputs":[],"stateMutability":"nonpayable","type":"constructor"},{"inputs":[{"internalType":"uint256","name":"_id","type":"uint256"},{"internalType":"uint256","name":"_userId","type":"uint256"},{"internalType":"string","name":"_categoryName","type":"string"}],"name":"addSponser","outputs":[],"stateMutability":"payable","type":"function"},{"inputs":[{"internalType":"string","name":"_name","type":"string"},{"internalType":"string","name":"_bio","type":"string"},{"internalType":"string","name":"_country","type":"string"},{"internalType":"string","name":"_sdgCategory","type":"string"},{"internalType":"string","name":"_image","type":"string"},{"internalType":"string","name":"_twitter","type":"string"},{"internalType":"string","name":"_youtube","type":"string"},{"internalType":"string","name":"_instagram","type":"string"}],"name":"createEplorer","outputs":[],"stateMutability":"nonpayable","type":"function"},{"inputs":[{"internalType":"string","name":"_cover","type":"string"},{"internalType":"string","name":"_title","type":"string"},{"internalType":"string","name":"_country","type":"string"},{"internalType":"string","name":"_sdgCategory","type":"string"},{"internalType":"string","name":"_community","type":"string"},{"internalType":"uint256","name":"_target","type":"uint256"},{"internalType":"string","name":"_description","type":"string"},{"internalType":"uint256","name":"_explorerId","type":"uint256"},{"internalType":"string","name":"_explorerName","type":"string"}],"name":"createProject","outputs":[],"stateMutability":"nonpayable","type":"function"},{"inputs":[{"internalType":"uint256","name":"","type":"uint256"},{"internalType":"uint256","name":"","type":"uint256"}],"name":"doners","outputs":[{"internalType":"uint256","name":"id","type":"uint256"},{"internalType":"address","name":"_address","type":"address"},{"internalType":"uint256","name":"amount","type":"uint256"}],"stateMutability":"view","type":"function"},{"inputs":[{"internalType":"string","name":"_category","type":"string"}],"name":"getCategoryPrice","outputs":[{"internalType":"uint256","name":"","type":"uint256"}],"stateMutability":"view","type":"function"},{"inputs":[],"name":"getEthUsd","outputs":[{"internalType":"uint256","name":"","type":"uint256"}],"stateMutability":"view","type":"function"},{"inputs":[],"name":"getExplorer","outputs":[{"components":[{"internalType":"uint256","name":"id","type":"uint256"},{"internalType":"address payable","name":"owner","type":"address"},{"internalType":"uint256","name":"dateJoined","type":"uint256"},{"internalType":"string","name":"name","type":"string"},{"internalType":"string","name":"bio","type":"string"},{"internalType":"string","name":"country","type":"string"},{"internalType":"string","name":"sdgCategory","type":"string"},{"internalType":"string","name":"image","type":"string"},{"internalType":"string","name":"twitter","type":"string"},{"internalType":"string","name":"youtube","type":"string"},{"internalType":"string","name":"instagram","type":"string"},{"internalType":"uint256","name":"amountRecieved","type":"uint256"}],"internalType":"struct World3.Explorer[]","name":"","type":"tuple[]"}],"stateMutability":"view","type":"function"},{"inputs":[],"name":"getProject","outputs":[{"components":[{"internalType":"uint256","name":"projectId","type":"uint256"},{"internalType":"uint256","name":"explorerId","type":"uint256"},{"internalType":"address payable","name":"owner","type":"address"},{"internalType":"string","name":"explorerName","type":"string"},{"internalType":"string","name":"cover","type":"string"},{"internalType":"string","name":"title","type":"string"},{"components":[{"internalType":"uint256","name":"id","type":"uint256"},{"internalType":"address","name":"_address","type":"address"},{"internalType":"uint256","name":"amount","type":"uint256"}],"internalType":"struct World3.Doners","name":"doners","type":"tuple"},{"internalType":"string","name":"country","type":"string"},{"internalType":"string","name":"community","type":"string"},{"internalType":"uint256","name":"target","type":"uint256"},{"internalType":"string","name":"description","type":"string"},{"internalType":"string","name":"sdgCategory","type":"string"},{"internalType":"uint256","name":"amountRecieved","type":"uint256"}],"internalType":"struct World3.Project[]","name":"","type":"tuple[]"}],"stateMutability":"view","type":"function"},{"inputs":[{"internalType":"address","name":"","type":"address"}],"name":"isRegistered","outputs":[{"internalType":"bool","name":"","type":"bool"}],"stateMutability":"view","type":"function"},{"inputs":[],"name":"isRegisteredFunc","outputs":[{"internalType":"bool","name":"","type":"bool"}],"stateMutability":"view","type":"function"}],"evm":{"bytecode":{"linkReferences":{},"object":"608060405234801561001057600080fd5b50600080546001600160a01b03191673d0d5e3db44de05e9f294bb0a3beeaf030de24ada1790556121bf806100466000396000f3fe6080604052600436106100815760003560e01c806311678b69146100865780634592f3f71461009b5780634869f631146100c6578063568fefbf146100eb5780636e57b7001461015e578063baf3151b14610180578063bb27e0ce146101a0578063c3c5a547146101c3578063e6d99532146101f3578063ed4883f214610213575b600080fd5b6100996100943660046119d5565b610233565b005b3480156100a757600080fd5b506100b06105e7565b6040516100bd9190611a8d565b60405180910390f35b3480156100d257600080fd5b506100db610bf9565b60405190151581526020016100bd565b3480156100f757600080fd5b5061013b610106366004611bef565b600860209081526000928352604080842090915290825290208054600182015460029092015490916001600160a01b03169083565b604080519384526001600160a01b039092166020840152908201526060016100bd565b34801561016a57600080fd5b50610173610c22565b6040516100bd9190611c11565b34801561018c57600080fd5b5061009961019b366004611d8e565b611177565b3480156101ac57600080fd5b506101b56113f6565b6040519081526020016100bd565b3480156101cf57600080fd5b506100db6101de366004611ebc565b60076020526000908152604090205460ff1681565b3480156101ff57600080fd5b5061009961020e366004611eec565b611488565b34801561021f57600080fd5b506101b561022e36600461202b565b611705565b60008311801561024557506003548311155b61024e57600080fd5b600083815260056020908152604080832085845260049092529182902091519091903490600690610280908690612067565b9081526020016040518091039020546102999190612099565b6006846040516102a99190612067565b9081526040519081900360200181209190915560028301546001600160a01b03169081903480156108fc02916000818181858888f193505050501580156102f4573d6000803e3d6000fd5b503483600e01546103059190612099565b600e840155600b82015461031a903490612099565b600b8301556000868152600560205260409020835481556001808501549082015560028085015490820180546001600160a01b0319166001600160a01b039092169190911790556003808501805486939283019190610378906120b1565b610383929190611787565b506004820181600401908054610398906120b1565b6103a3929190611787565b5060058201816005019080546103b8906120b1565b6103c3929190611787565b506006828101549082015560078083015490820180546001600160a01b0319166001600160a01b03909216919091179055600880830154908201556009808301805491830191610412906120b1565b61041d929190611787565b50600a820181600a01908054610432906120b1565b61043d929190611787565b50600b82015481600b0155600c820181600c0190805461045c906120b1565b610467929190611787565b50600d820181600d0190805461047c906120b1565b610487929190611787565b50600e9182015491015560008581526004602052604090208254815560018084015490820180546001600160a01b0319166001600160a01b039092169190911790556002808401549082015560038084018054859392830191906104ea906120b1565b6104f5929190611787565b50600482018160040190805461050a906120b1565b610515929190611787565b50600582018160050190805461052a906120b1565b610535929190611787565b50600682018160060190805461054a906120b1565b610555929190611787565b50600782018160070190805461056a906120b1565b610575929190611787565b50600882018160080190805461058a906120b1565b610595929190611787565b5060098201816009019080546105aa906120b1565b6105b5929190611787565b50600a820181600a019080546105ca906120b1565b6105d5929190611787565b50600b91820154910155505050505050565b606060006105f460015490565b9050600080826001600160401b0381111561061157610611611933565b6040519080825280602002602001820160405280156106af57816020015b61069c6040518061018001604052806000815260200160006001600160a01b03168152602001600081526020016060815260200160608152602001606081526020016060815260200160608152602001606081526020016060815260200160608152602001600081525090565b81526020019060019003908161062f5790505b50905060005b83811015610bf15760006106ca826001612099565b6000818152600460209081526040918290208251610180810184528154815260018201546001600160a01b031692810192909252600281015492820192909252600382018054939450919290918391606084019190610728906120b1565b80601f0160208091040260200160405190810160405280929190818152602001828054610754906120b1565b80156107a15780601f10610776576101008083540402835291602001916107a1565b820191906000526020600020905b81548152906001019060200180831161078457829003601f168201915b505050505081526020016004820180546107ba906120b1565b80601f01602080910402602001604051908101604052809291908181526020018280546107e6906120b1565b80156108335780601f1061080857610100808354040283529160200191610833565b820191906000526020600020905b81548152906001019060200180831161081657829003601f168201915b5050505050815260200160058201805461084c906120b1565b80601f0160208091040260200160405190810160405280929190818152602001828054610878906120b1565b80156108c55780601f1061089a576101008083540402835291602001916108c5565b820191906000526020600020905b8154815290600101906020018083116108a857829003601f168201915b505050505081526020016006820180546108de906120b1565b80601f016020809104026020016040519081016040528092919081815260200182805461090a906120b1565b80156109575780601f1061092c57610100808354040283529160200191610957565b820191906000526020600020905b81548152906001019060200180831161093a57829003601f168201915b50505050508152602001600782018054610970906120b1565b80601f016020809104026020016040519081016040528092919081815260200182805461099c906120b1565b80156109e95780601f106109be576101008083540402835291602001916109e9565b820191906000526020600020905b8154815290600101906020018083116109cc57829003601f168201915b50505050508152602001600882018054610a02906120b1565b80601f0160208091040260200160405190810160405280929190818152602001828054610a2e906120b1565b8015610a7b5780601f10610a5057610100808354040283529160200191610a7b565b820191906000526020600020905b815481529060010190602001808311610a5e57829003601f168201915b50505050508152602001600982018054610a94906120b1565b80601f0160208091040260200160405190810160405280929190818152602001828054610ac0906120b1565b8015610b0d5780601f10610ae257610100808354040283529160200191610b0d565b820191906000526020600020905b815481529060010190602001808311610af057829003601f168201915b50505050508152602001600a82018054610b26906120b1565b80601f0160208091040260200160405190810160405280929190818152602001828054610b52906120b1565b8015610b9f5780601f10610b7457610100808354040283529160200191610b9f565b820191906000526020600020905b815481529060010190602001808311610b8257829003601f168201915b50505050508152602001600b82015481525050848681518110610bc457610bc46120ec565b6020908102919091010152610bda600186612099565b945050508080610be990612102565b9150506106b5565b509392505050565b3360009081526007602052604081205460ff16151560011415610c1c5750600190565b50600090565b60606000610c2f60035490565b9050600080826001600160401b03811115610c4c57610c4c611933565b604051908082528060200260200182016040528015610c8557816020015b610c7261180e565b815260200190600190039081610c6a5790505b50905060005b83811015610bf1576000610ca0826001612099565b60008181526005602090815260409182902082516101a0810184528154815260018201549281019290925260028101546001600160a01b031692820192909252600382018054939450919290918391606084019190610cfe906120b1565b80601f0160208091040260200160405190810160405280929190818152602001828054610d2a906120b1565b8015610d775780601f10610d4c57610100808354040283529160200191610d77565b820191906000526020600020905b815481529060010190602001808311610d5a57829003601f168201915b50505050508152602001600482018054610d90906120b1565b80601f0160208091040260200160405190810160405280929190818152602001828054610dbc906120b1565b8015610e095780601f10610dde57610100808354040283529160200191610e09565b820191906000526020600020905b815481529060010190602001808311610dec57829003601f168201915b50505050508152602001600582018054610e22906120b1565b80601f0160208091040260200160405190810160405280929190818152602001828054610e4e906120b1565b8015610e9b5780601f10610e7057610100808354040283529160200191610e9b565b820191906000526020600020905b815481529060010190602001808311610e7e57829003601f168201915b5050509183525050604080516060810182526006840154815260078401546001600160a01b0316602082810191909152600885015482840152830152600983018054919092019190610eec906120b1565b80601f0160208091040260200160405190810160405280929190818152602001828054610f18906120b1565b8015610f655780601f10610f3a57610100808354040283529160200191610f65565b820191906000526020600020905b815481529060010190602001808311610f4857829003601f168201915b50505050508152602001600a82018054610f7e906120b1565b80601f0160208091040260200160405190810160405280929190818152602001828054610faa906120b1565b8015610ff75780601f10610fcc57610100808354040283529160200191610ff7565b820191906000526020600020905b815481529060010190602001808311610fda57829003601f168201915b50505050508152602001600b8201548152602001600c8201805461101a906120b1565b80601f0160208091040260200160405190810160405280929190818152602001828054611046906120b1565b80156110935780601f1061106857610100808354040283529160200191611093565b820191906000526020600020905b81548152906001019060200180831161107657829003601f168201915b50505050508152602001600d820180546110ac906120b1565b80601f01602080910402602001604051908101604052809291908181526020018280546110d8906120b1565b80156111255780601f106110fa57610100808354040283529160200191611125565b820191906000526020600020905b81548152906001019060200180831161110857829003601f168201915b50505050508152602001600e8201548152505084868151811061114a5761114a6120ec565b6020908102919091010152611160600186612099565b94505050808061116f90612102565b915050610c8b565b611185600380546001019055565b60006005600061119460035490565b815260200190815260200160002090506111ad60035490565b81556001810183905581516111cb90600383019060208501906118aa565b5089516111e190600483019060208d01906118aa565b5088516111f790600583019060208c01906118aa565b50875161120d90600983019060208b01906118aa565b50865161122390600d83019060208a01906118aa565b50855161123990600a83019060208901906118aa565b50600b8101859055835161125690600c83019060208701906118aa565b506002810180546001600160a01b03191633179055806005600061127960035490565b81526020810191909152604001600020815481556001808301549082015560028083015490820180546001600160a01b0319166001600160a01b0390921691909117905560038083018054918301916112d1906120b1565b6112dc929190611787565b5060048201816004019080546112f1906120b1565b6112fc929190611787565b506005820181600501908054611311906120b1565b61131c929190611787565b506006828101549082015560078083015490820180546001600160a01b0319166001600160a01b0390921691909117905560088083015490820155600980830180549183019161136b906120b1565b611376929190611787565b50600a820181600a0190805461138b906120b1565b611396929190611787565b50600b82015481600b0155600c820181600c019080546113b5906120b1565b6113c0929190611787565b50600d820181600d019080546113d5906120b1565b6113e0929190611787565b50600e9182015491015550505050505050505050565b6000805460408051633fabe5a360e21b8152905183926001600160a01b03169163feaf968c9160048083019260a0929190829003018186803b15801561143b57600080fd5b505afa15801561144f573d6000803e3d6000fd5b505050506040513d601f19601f820116820180604052508101906114739190612139565b5050509150506114828161172d565b91505090565b611496600180546001019055565b6000600460006114a560015490565b815260200190815260200160002090506114be60015490565b81556001810180546001600160a01b0319163317905542600282015588516114ef90600383019060208c01906118aa565b50875161150590600483019060208b01906118aa565b50865161151b90600583019060208a01906118aa565b50855161153190600683019060208901906118aa565b50845161154790600783019060208801906118aa565b50835161155d90600883019060208701906118aa565b50825161157390600983019060208601906118aa565b50815161158990600a83019060208501906118aa565b50336000908152600760205260408120805460ff19166001908117909155548291600491815260208101919091526040016000208154815560018083015490820180546001600160a01b0319166001600160a01b03909216919091179055600280830154908201556003808301805491830191611605906120b1565b611610929190611787565b506004820181600401908054611625906120b1565b611630929190611787565b506005820181600501908054611645906120b1565b611650929190611787565b506006820181600601908054611665906120b1565b611670929190611787565b506007820181600701908054611685906120b1565b611690929190611787565b5060088201816008019080546116a5906120b1565b6116b0929190611787565b5060098201816009019080546116c5906120b1565b6116d0929190611787565b50600a820181600a019080546116e5906120b1565b6116f0929190611787565b50600b91820154910155505050505050505050565b60006006826040516117179190612067565b9081526020016040518091039020549050919050565b6000808212156117835760405162461bcd60e51b815260206004820181905260248201527f53616665436173743a2076616c7565206d75737420626520706f736974697665604482015260640160405180910390fd5b5090565b828054611793906120b1565b90600052602060002090601f0160209004810192826117b55760008555611802565b82601f106117c65780548555611802565b8280016001018555821561180257600052602060002091601f016020900482015b828111156118025782548255916001019190600101906117e7565b5061178392915061191e565b604051806101a00160405280600081526020016000815260200160006001600160a01b0316815260200160608152602001606081526020016060815260200161187a60405180606001604052806000815260200160006001600160a01b03168152602001600081525090565b81526020016060815260200160608152602001600081526020016060815260200160608152602001600081525090565b8280546118b6906120b1565b90600052602060002090601f0160209004810192826118d85760008555611802565b82601f106118f157805160ff1916838001178555611802565b82800160010185558215611802579182015b82811115611802578251825591602001919060010190611903565b5b80821115611783576000815560010161191f565b634e487b7160e01b600052604160045260246000fd5b600082601f83011261195a57600080fd5b81356001600160401b038082111561197457611974611933565b604051601f8301601f19908116603f0116810190828211818310171561199c5761199c611933565b816040528381528660208588010111156119b557600080fd5b836020870160208301376000602085830101528094505050505092915050565b6000806000606084860312156119ea57600080fd5b833592506020840135915060408401356001600160401b03811115611a0e57600080fd5b611a1a86828701611949565b9150509250925092565b6001600160a01b03169052565b60005b83811015611a4c578181015183820152602001611a34565b83811115611a5b576000848401525b50505050565b60008151808452611a79816020860160208601611a31565b601f01601f19169290920160200192915050565b60006020808301818452808551808352604092508286019150828160051b87010184880160005b83811015611be157603f1989840301855281516101808151855288820151611ade8a870182611a24565b5087820151888601526060808301518282880152611afe83880182611a61565b9250505060808083015186830382880152611b198382611a61565b9250505060a08083015186830382880152611b348382611a61565b9250505060c08083015186830382880152611b4f8382611a61565b9250505060e08083015186830382880152611b6a8382611a61565b925050506101008083015186830382880152611b868382611a61565b925050506101208083015186830382880152611ba28382611a61565b925050506101408083015186830382880152611bbe8382611a61565b610160948501519790940196909652505094870194925090860190600101611ab4565b509098975050505050505050565b60008060408385031215611c0257600080fd5b50508035926020909101359150565b60006020808301818452808551808352604092508286019150828160051b87010184880160005b83811015611be157603f1989840301855281516101e081518552888201518986015287820151611c6a89870182611a24565b506060808301518282880152611c8283880182611a61565b9250505060808083015186830382880152611c9d8382611a61565b9250505060a08083015186830382880152611cb88382611a61565b9250505060c080830151611ceb82880182805182526020808201516001600160a01b031690830152604090810151910152565b505060e082015161012086830381880152611d068383611a61565b9250610100840151915061014087840381890152611d248484611a61565b9350818501519250610160915082828901528085015192505061018087840381890152611d518484611a61565b93508185015192508784036101a0890152611d6c8484611a61565b9401516101c09790970196909652505094870194925090860190600101611c38565b60008060008060008060008060006101208a8c031215611dad57600080fd5b89356001600160401b0380821115611dc457600080fd5b611dd08d838e01611949565b9a5060208c0135915080821115611de657600080fd5b611df28d838e01611949565b995060408c0135915080821115611e0857600080fd5b611e148d838e01611949565b985060608c0135915080821115611e2a57600080fd5b611e368d838e01611949565b975060808c0135915080821115611e4c57600080fd5b611e588d838e01611949565b965060a08c0135955060c08c0135915080821115611e7557600080fd5b611e818d838e01611949565b945060e08c013593506101008c0135915080821115611e9f57600080fd5b50611eac8c828d01611949565b9150509295985092959850929598565b600060208284031215611ece57600080fd5b81356001600160a01b0381168114611ee557600080fd5b9392505050565b600080600080600080600080610100898b031215611f0957600080fd5b88356001600160401b0380821115611f2057600080fd5b611f2c8c838d01611949565b995060208b0135915080821115611f4257600080fd5b611f4e8c838d01611949565b985060408b0135915080821115611f6457600080fd5b611f708c838d01611949565b975060608b0135915080821115611f8657600080fd5b611f928c838d01611949565b965060808b0135915080821115611fa857600080fd5b611fb48c838d01611949565b955060a08b0135915080821115611fca57600080fd5b611fd68c838d01611949565b945060c08b0135915080821115611fec57600080fd5b611ff88c838d01611949565b935060e08b013591508082111561200e57600080fd5b5061201b8b828c01611949565b9150509295985092959890939650565b60006020828403121561203d57600080fd5b81356001600160401b0381111561205357600080fd5b61205f84828501611949565b949350505050565b60008251612079818460208701611a31565b9190910192915050565b634e487b7160e01b600052601160045260246000fd5b600082198211156120ac576120ac612083565b500190565b600181811c908216806120c557607f821691505b602082108114156120e657634e487b7160e01b600052602260045260246000fd5b50919050565b634e487b7160e01b600052603260045260246000fd5b600060001982141561211657612116612083565b5060010190565b80516001600160501b038116811461213457600080fd5b919050565b600080600080600060a0868803121561215157600080fd5b61215a8661211d565b945060208601519350604086015192506060860151915061217d6080870161211d565b9050929550929590935056fea2646970667358221220b6009d12c8b4c894873080fafb12139b052018c94dd2675eb5928ca2cf64af5664736f6c63430008090033","opcodes":"PUSH1 0x80 PUSH1 0x40 MSTORE CALLVALUE DUP1 ISZERO PUSH2 0x10 JUMPI PUSH1 0x0 DUP1 REVERT JUMPDEST POP PUSH1 0x0 DUP1 SLOAD PUSH1 0x1 PUSH1 0x1 PUSH1 0xA0 SHL SUB NOT AND PUSH20 0xD0D5E3DB44DE05E9F294BB0A3BEEAF030DE24ADA OR SWAP1 SSTORE PUSH2 0x21BF DUP1 PUSH2 0x46 PUSH1 0x0 CODECOPY PUSH1 0x0 RETURN INVALID PUSH1 0x80 PUSH1 0x40 MSTORE PUSH1 0x4 CALLDATASIZE LT PUSH2 0x81 JUMPI PUSH1 0x0 CALLDATALOAD PUSH1 0xE0 SHR DUP1 PUSH4 0x11678B69 EQ PUSH2 0x86 JUMPI DUP1 PUSH4 0x4592F3F7 EQ PUSH2 0x9B JUMPI DUP1 PUSH4 0x4869F631 EQ PUSH2 0xC6 JUMPI DUP1 PUSH4 0x568FEFBF EQ PUSH2 0xEB JUMPI DUP1 PUSH4 0x6E57B700 EQ PUSH2 0x15E JUMPI DUP1 PUSH4 0xBAF3151B EQ PUSH2 0x180 JUMPI DUP1 PUSH4 0xBB27E0CE EQ PUSH2 0x1A0 JUMPI DUP1 PUSH4 0xC3C5A547 EQ PUSH2 0x1C3 JUMPI DUP1 PUSH4 0xE6D99532 EQ PUSH2 0x1F3 JUMPI DUP1 PUSH4 0xED4883F2 EQ PUSH2 0x213 JUMPI JUMPDEST PUSH1 0x0 DUP1 REVERT JUMPDEST PUSH2 0x99 PUSH2 0x94 CALLDATASIZE PUSH1 0x4 PUSH2 0x19D5 JUMP JUMPDEST PUSH2 0x233 JUMP JUMPDEST STOP JUMPDEST CALLVALUE DUP1 ISZERO PUSH2 0xA7 JUMPI PUSH1 0x0 DUP1 REVERT JUMPDEST POP PUSH2 0xB0 PUSH2 0x5E7 JUMP JUMPDEST PUSH1 0x40 MLOAD PUSH2 0xBD SWAP2 SWAP1 PUSH2 0x1A8D JUMP JUMPDEST PUSH1 0x40 MLOAD DUP1 SWAP2 SUB SWAP1 RETURN JUMPDEST CALLVALUE DUP1 ISZERO PUSH2 0xD2 JUMPI PUSH1 0x0 DUP1 REVERT JUMPDEST POP PUSH2 0xDB PUSH2 0xBF9 JUMP JUMPDEST PUSH1 0x40 MLOAD SWAP1 ISZERO ISZERO DUP2 MSTORE PUSH1 0x20 ADD PUSH2 0xBD JUMP JUMPDEST CALLVALUE DUP1 ISZERO PUSH2 0xF7 JUMPI PUSH1 0x0 DUP1 REVERT JUMPDEST POP PUSH2 0x13B PUSH2 0x106 CALLDATASIZE PUSH1 0x4 PUSH2 0x1BEF JUMP JUMPDEST PUSH1 0x8 PUSH1 0x20 SWAP1 DUP2 MSTORE PUSH1 0x0 SWAP3 DUP4 MSTORE PUSH1 0x40 DUP1 DUP5 KECCAK256 SWAP1 SWAP2 MSTORE SWAP1 DUP3 MSTORE SWAP1 KECCAK256 DUP1 SLOAD PUSH1 0x1 DUP3 ADD SLOAD PUSH1 0x2 SWAP1 SWAP3 ADD SLOAD SWAP1 SWAP2 PUSH1 0x1 PUSH1 0x1 PUSH1 0xA0 SHL SUB AND SWAP1 DUP4 JUMP JUMPDEST PUSH1 0x40 DUP1 MLOAD SWAP4 DUP5 MSTORE PUSH1 0x1 PUSH1 0x1 PUSH1 0xA0 SHL SUB SWAP1 SWAP3 AND PUSH1 0x20 DUP5 ADD MSTORE SWAP1 DUP3 ADD MSTORE PUSH1 0x60 ADD PUSH2 0xBD JUMP JUMPDEST CALLVALUE DUP1 ISZERO PUSH2 0x16A JUMPI PUSH1 0x0 DUP1 REVERT JUMPDEST POP PUSH2 0x173 PUSH2 0xC22 JUMP JUMPDEST PUSH1 0x40 MLOAD PUSH2 0xBD SWAP2 SWAP1 PUSH2 0x1C11 JUMP JUMPDEST CALLVALUE DUP1 ISZERO PUSH2 0x18C JUMPI PUSH1 0x0 DUP1 REVERT JUMPDEST POP PUSH2 0x99 PUSH2 0x19B CALLDATASIZE PUSH1 0x4 PUSH2 0x1D8E JUMP JUMPDEST PUSH2 0x1177 JUMP JUMPDEST CALLVALUE DUP1 ISZERO PUSH2 0x1AC JUMPI PUSH1 0x0 DUP1 REVERT JUMPDEST POP PUSH2 0x1B5 PUSH2 0x13F6 JUMP JUMPDEST PUSH1 0x40 MLOAD SWAP1 DUP2 MSTORE PUSH1 0x20 ADD PUSH2 0xBD JUMP JUMPDEST CALLVALUE DUP1 ISZERO PUSH2 0x1CF JUMPI PUSH1 0x0 DUP1 REVERT JUMPDEST POP PUSH2 0xDB PUSH2 0x1DE CALLDATASIZE PUSH1 0x4 PUSH2 0x1EBC JUMP JUMPDEST PUSH1 0x7 PUSH1 0x20 MSTORE PUSH1 0x0 SWAP1 DUP2 MSTORE PUSH1 0x40 SWAP1 KECCAK256 SLOAD PUSH1 0xFF AND DUP2 JUMP JUMPDEST CALLVALUE DUP1 ISZERO PUSH2 0x1FF JUMPI PUSH1 0x0 DUP1 REVERT JUMPDEST POP PUSH2 0x99 PUSH2 0x20E CALLDATASIZE PUSH1 0x4 PUSH2 0x1EEC JUMP JUMPDEST PUSH2 0x1488 JUMP JUMPDEST CALLVALUE DUP1 ISZERO PUSH2 0x21F JUMPI PUSH1 0x0 DUP1 REVERT JUMPDEST POP PUSH2 0x1B5 PUSH2 0x22E CALLDATASIZE PUSH1 0x4 PUSH2 0x202B JUMP JUMPDEST PUSH2 0x1705 JUMP JUMPDEST PUSH1 0x0 DUP4 GT DUP1 ISZERO PUSH2 0x245 JUMPI POP PUSH1 0x3 SLOAD DUP4 GT ISZERO JUMPDEST PUSH2 0x24E JUMPI PUSH1 0x0 DUP1 REVERT JUMPDEST PUSH1 0x0 DUP4 DUP2 MSTORE PUSH1 0x5 PUSH1 0x20 SWAP1 DUP2 MSTORE PUSH1 0x40 DUP1 DUP4 KECCAK256 DUP6 DUP5 MSTORE PUSH1 0x4 SWAP1 SWAP3 MSTORE SWAP2 DUP3 SWAP1 KECCAK256 SWAP2 MLOAD SWAP1 SWAP2 SWAP1 CALLVALUE SWAP1 PUSH1 0x6 SWAP1 PUSH2 0x280 SWAP1 DUP7 SWAP1 PUSH2 0x2067 JUMP JUMPDEST SWAP1 DUP2 MSTORE PUSH1 0x20 ADD PUSH1 0x40 MLOAD DUP1 SWAP2 SUB SWAP1 KECCAK256 SLOAD PUSH2 0x299 SWAP2 SWAP1 PUSH2 0x2099 JUMP JUMPDEST PUSH1 0x6 DUP5 PUSH1 0x40 MLOAD PUSH2 0x2A9 SWAP2 SWAP1 PUSH2 0x2067 JUMP JUMPDEST SWAP1 DUP2 MSTORE PUSH1 0x40 MLOAD SWAP1 DUP2 SWAP1 SUB PUSH1 0x20 ADD DUP2 KECCAK256 SWAP2 SWAP1 SWAP2 SSTORE PUSH1 0x2 DUP4 ADD SLOAD PUSH1 0x1 PUSH1 0x1 PUSH1 0xA0 SHL SUB AND SWAP1 DUP2 SWAP1 CALLVALUE DUP1 ISZERO PUSH2 0x8FC MUL SWAP2 PUSH1 0x0 DUP2 DUP2 DUP2 DUP6 DUP9 DUP9 CALL SWAP4 POP POP POP POP ISZERO DUP1 ISZERO PUSH2 0x2F4 JUMPI RETURNDATASIZE PUSH1 0x0 DUP1 RETURNDATACOPY RETURNDATASIZE PUSH1 0x0 REVERT JUMPDEST POP CALLVALUE DUP4 PUSH1 0xE ADD SLOAD PUSH2 0x305 SWAP2 SWAP1 PUSH2 0x2099 JUMP JUMPDEST PUSH1 0xE DUP5 ADD SSTORE PUSH1 0xB DUP3 ADD SLOAD PUSH2 0x31A SWAP1 CALLVALUE SWAP1 PUSH2 0x2099 JUMP JUMPDEST PUSH1 0xB DUP4 ADD SSTORE PUSH1 0x0 DUP7 DUP2 MSTORE PUSH1 0x5 PUSH1 0x20 MSTORE PUSH1 0x40 SWAP1 KECCAK256 DUP4 SLOAD DUP2 SSTORE PUSH1 0x1 DUP1 DUP6 ADD SLOAD SWAP1 DUP3 ADD SSTORE PUSH1 0x2 DUP1 DUP6 ADD SLOAD SWAP1 DUP3 ADD DUP1 SLOAD PUSH1 0x1 PUSH1 0x1 PUSH1 0xA0 SHL SUB NOT AND PUSH1 0x1 PUSH1 0x1 PUSH1 0xA0 SHL SUB SWAP1 SWAP3 AND SWAP2 SWAP1 SWAP2 OR SWAP1 SSTORE PUSH1 0x3 DUP1 DUP6 ADD DUP1 SLOAD DUP7 SWAP4 SWAP3 DUP4 ADD SWAP2 SWAP1 PUSH2 0x378 SWAP1 PUSH2 0x20B1 JUMP JUMPDEST PUSH2 0x383 SWAP3 SWAP2 SWAP1 PUSH2 0x1787 JUMP JUMPDEST POP PUSH1 0x4 DUP3 ADD DUP2 PUSH1 0x4 ADD SWAP1 DUP1 SLOAD PUSH2 0x398 SWAP1 PUSH2 0x20B1 JUMP JUMPDEST PUSH2 0x3A3 SWAP3 SWAP2 SWAP1 PUSH2 0x1787 JUMP JUMPDEST POP PUSH1 0x5 DUP3 ADD DUP2 PUSH1 0x5 ADD SWAP1 DUP1 SLOAD PUSH2 0x3B8 SWAP1 PUSH2 0x20B1 JUMP JUMPDEST PUSH2 0x3C3 SWAP3 SWAP2 SWAP1 PUSH2 0x1787 JUMP JUMPDEST POP PUSH1 0x6 DUP3 DUP2 ADD SLOAD SWAP1 DUP3 ADD SSTORE PUSH1 0x7 DUP1 DUP4 ADD SLOAD SWAP1 DUP3 ADD DUP1 SLOAD PUSH1 0x1 PUSH1 0x1 PUSH1 0xA0 SHL SUB NOT AND PUSH1 0x1 PUSH1 0x1 PUSH1 0xA0 SHL SUB SWAP1 SWAP3 AND SWAP2 SWAP1 SWAP2 OR SWAP1 SSTORE PUSH1 0x8 DUP1 DUP4 ADD SLOAD SWAP1 DUP3 ADD SSTORE PUSH1 0x9 DUP1 DUP4 ADD DUP1 SLOAD SWAP2 DUP4 ADD SWAP2 PUSH2 0x412 SWAP1 PUSH2 0x20B1 JUMP JUMPDEST PUSH2 0x41D SWAP3 SWAP2 SWAP1 PUSH2 0x1787 JUMP JUMPDEST POP PUSH1 0xA DUP3 ADD DUP2 PUSH1 0xA ADD SWAP1 DUP1 SLOAD PUSH2 0x432 SWAP1 PUSH2 0x20B1 JUMP JUMPDEST PUSH2 0x43D SWAP3 SWAP2 SWAP1 PUSH2 0x1787 JUMP JUMPDEST POP PUSH1 0xB DUP3 ADD SLOAD DUP2 PUSH1 0xB ADD SSTORE PUSH1 0xC DUP3 ADD DUP2 PUSH1 0xC ADD SWAP1 DUP1 SLOAD PUSH2 0x45C SWAP1 PUSH2 0x20B1 JUMP JUMPDEST PUSH2 0x467 SWAP3 SWAP2 SWAP1 PUSH2 0x1787 JUMP JUMPDEST POP PUSH1 0xD DUP3 ADD DUP2 PUSH1 0xD ADD SWAP1 DUP1 SLOAD PUSH2 0x47C SWAP1 PUSH2 0x20B1 JUMP JUMPDEST PUSH2 0x487 SWAP3 SWAP2 SWAP1 PUSH2 0x1787 JUMP JUMPDEST POP PUSH1 0xE SWAP2 DUP3 ADD SLOAD SWAP2 ADD SSTORE PUSH1 0x0 DUP6 DUP2 MSTORE PUSH1 0x4 PUSH1 0x20 MSTORE PUSH1 0x40 SWAP1 KECCAK256 DUP3 SLOAD DUP2 SSTORE PUSH1 0x1 DUP1 DUP5 ADD SLOAD SWAP1 DUP3 ADD DUP1 SLOAD PUSH1 0x1 PUSH1 0x1 PUSH1 0xA0 SHL SUB NOT AND PUSH1 0x1 PUSH1 0x1 PUSH1 0xA0 SHL SUB SWAP1 SWAP3 AND SWAP2 SWAP1 SWAP2 OR SWAP1 SSTORE PUSH1 0x2 DUP1 DUP5 ADD SLOAD SWAP1 DUP3 ADD SSTORE PUSH1 0x3 DUP1 DUP5 ADD DUP1 SLOAD DUP6 SWAP4 SWAP3 DUP4 ADD SWAP2 SWAP1 PUSH2 0x4EA SWAP1 PUSH2 0x20B1 JUMP JUMPDEST PUSH2 0x4F5 SWAP3 SWAP2 SWAP1 PUSH2 0x1787 JUMP JUMPDEST POP PUSH1 0x4 DUP3 ADD DUP2 PUSH1 0x4 ADD SWAP1 DUP1 SLOAD PUSH2 0x50A SWAP1 PUSH2 0x20B1 JUMP JUMPDEST PUSH2 0x515 SWAP3 SWAP2 SWAP1 PUSH2 0x1787 JUMP JUMPDEST POP PUSH1 0x5 DUP3 ADD DUP2 PUSH1 0x5 ADD SWAP1 DUP1 SLOAD PUSH2 0x52A SWAP1 PUSH2 0x20B1 JUMP JUMPDEST PUSH2 0x535 SWAP3 SWAP2 SWAP1 PUSH2 0x1787 JUMP JUMPDEST POP PUSH1 0x6 DUP3 ADD DUP2 PUSH1 0x6 ADD SWAP1 DUP1 SLOAD PUSH2 0x54A SWAP1 PUSH2 0x20B1 JUMP JUMPDEST PUSH2 0x555 SWAP3 SWAP2 SWAP1 PUSH2 0x1787 JUMP JUMPDEST POP PUSH1 0x7 DUP3 ADD DUP2 PUSH1 0x7 ADD SWAP1 DUP1 SLOAD PUSH2 0x56A SWAP1 PUSH2 0x20B1 JUMP JUMPDEST PUSH2 0x575 SWAP3 SWAP2 SWAP1 PUSH2 0x1787 JUMP JUMPDEST POP PUSH1 0x8 DUP3 ADD DUP2 PUSH1 0x8 ADD SWAP1 DUP1 SLOAD PUSH2 0x58A SWAP1 PUSH2 0x20B1 JUMP JUMPDEST PUSH2 0x595 SWAP3 SWAP2 SWAP1 PUSH2 0x1787 JUMP JUMPDEST POP PUSH1 0x9 DUP3 ADD DUP2 PUSH1 0x9 ADD SWAP1 DUP1 SLOAD PUSH2 0x5AA SWAP1 PUSH2 0x20B1 JUMP JUMPDEST PUSH2 0x5B5 SWAP3 SWAP2 SWAP1 PUSH2 0x1787 JUMP JUMPDEST POP PUSH1 0xA DUP3 ADD DUP2 PUSH1 0xA ADD SWAP1 DUP1 SLOAD PUSH2 0x5CA SWAP1 PUSH2 0x20B1 JUMP JUMPDEST PUSH2 0x5D5 SWAP3 SWAP2 SWAP1 PUSH2 0x1787 JUMP JUMPDEST POP PUSH1 0xB SWAP2 DUP3 ADD SLOAD SWAP2 ADD SSTORE POP POP POP POP POP POP JUMP JUMPDEST PUSH1 0x60 PUSH1 0x0 PUSH2 0x5F4 PUSH1 0x1 SLOAD SWAP1 JUMP JUMPDEST SWAP1 POP PUSH1 0x0 DUP1 DUP3 PUSH1 0x1 PUSH1 0x1 PUSH1 0x40 SHL SUB DUP2 GT ISZERO PUSH2 0x611 JUMPI PUSH2 0x611 PUSH2 0x1933 JUMP JUMPDEST PUSH1 0x40 MLOAD SWAP1 DUP1 DUP3 MSTORE DUP1 PUSH1 0x20 MUL PUSH1 0x20 ADD DUP3 ADD PUSH1 0x40 MSTORE DUP1 ISZERO PUSH2 0x6AF JUMPI DUP2 PUSH1 0x20 ADD JUMPDEST PUSH2 0x69C PUSH1 0x40 MLOAD DUP1 PUSH2 0x180 ADD PUSH1 0x40 MSTORE DUP1 PUSH1 0x0 DUP2 MSTORE PUSH1 0x20 ADD PUSH1 0x0 PUSH1 0x1 PUSH1 0x1 PUSH1 0xA0 SHL SUB AND DUP2 MSTORE PUSH1 0x20 ADD PUSH1 0x0 DUP2 MSTORE PUSH1 0x20 ADD PUSH1 0x60 DUP2 MSTORE PUSH1 0x20 ADD PUSH1 0x60 DUP2 MSTORE PUSH1 0x20 ADD PUSH1 0x60 DUP2 MSTORE PUSH1 0x20 ADD PUSH1 0x60 DUP2 MSTORE PUSH1 0x20 ADD PUSH1 0x60 DUP2 MSTORE PUSH1 0x20 ADD PUSH1 0x60 DUP2 MSTORE PUSH1 0x20 ADD PUSH1 0x60 DUP2 MSTORE PUSH1 0x20 ADD PUSH1 0x60 DUP2 MSTORE PUSH1 0x20 ADD PUSH1 0x0 DUP2 MSTORE POP SWAP1 JUMP JUMPDEST DUP2 MSTORE PUSH1 0x20 ADD SWAP1 PUSH1 0x1 SWAP1 SUB SWAP1 DUP2 PUSH2 0x62F JUMPI SWAP1 POP JUMPDEST POP SWAP1 POP PUSH1 0x0 JUMPDEST DUP4 DUP2 LT ISZERO PUSH2 0xBF1 JUMPI PUSH1 0x0 PUSH2 0x6CA DUP3 PUSH1 0x1 PUSH2 0x2099 JUMP JUMPDEST PUSH1 0x0 DUP2 DUP2 MSTORE PUSH1 0x4 PUSH1 0x20 SWAP1 DUP2 MSTORE PUSH1 0x40 SWAP2 DUP3 SWAP1 KECCAK256 DUP3 MLOAD PUSH2 0x180 DUP2 ADD DUP5 MSTORE DUP2 SLOAD DUP2 MSTORE PUSH1 0x1 DUP3 ADD SLOAD PUSH1 0x1 PUSH1 0x1 PUSH1 0xA0 SHL SUB AND SWAP3 DUP2 ADD SWAP3 SWAP1 SWAP3 MSTORE PUSH1 0x2 DUP2 ADD SLOAD SWAP3 DUP3 ADD SWAP3 SWAP1 SWAP3 MSTORE PUSH1 0x3 DUP3 ADD DUP1 SLOAD SWAP4 SWAP5 POP SWAP2 SWAP3 SWAP1 SWAP2 DUP4 SWAP2 PUSH1 0x60 DUP5 ADD SWAP2 SWAP1 PUSH2 0x728 SWAP1 PUSH2 0x20B1 JUMP JUMPDEST DUP1 PUSH1 0x1F ADD PUSH1 0x20 DUP1 SWAP2 DIV MUL PUSH1 0x20 ADD PUSH1 0x40 MLOAD SWAP1 DUP2 ADD PUSH1 0x40 MSTORE DUP1 SWAP3 SWAP2 SWAP1 DUP2 DUP2 MSTORE PUSH1 0x20 ADD DUP3 DUP1 SLOAD PUSH2 0x754 SWAP1 PUSH2 0x20B1 JUMP JUMPDEST DUP1 ISZERO PUSH2 0x7A1 JUMPI DUP1 PUSH1 0x1F LT PUSH2 0x776 JUMPI PUSH2 0x100 DUP1 DUP4 SLOAD DIV MUL DUP4 MSTORE SWAP2 PUSH1 0x20 ADD SWAP2 PUSH2 0x7A1 JUMP JUMPDEST DUP3 ADD SWAP2 SWAP1 PUSH1 0x0 MSTORE PUSH1 0x20 PUSH1 0x0 KECCAK256 SWAP1 JUMPDEST DUP2 SLOAD DUP2 MSTORE SWAP1 PUSH1 0x1 ADD SWAP1 PUSH1 0x20 ADD DUP1 DUP4 GT PUSH2 0x784 JUMPI DUP3 SWAP1 SUB PUSH1 0x1F AND DUP3 ADD SWAP2 JUMPDEST POP POP POP POP POP DUP2 MSTORE PUSH1 0x20 ADD PUSH1 0x4 DUP3 ADD DUP1 SLOAD PUSH2 0x7BA SWAP1 PUSH2 0x20B1 JUMP JUMPDEST DUP1 PUSH1 0x1F ADD PUSH1 0x20 DUP1 SWAP2 DIV MUL PUSH1 0x20 ADD PUSH1 0x40 MLOAD SWAP1 DUP2 ADD PUSH1 0x40 MSTORE DUP1 SWAP3 SWAP2 SWAP1 DUP2 DUP2 MSTORE PUSH1 0x20 ADD DUP3 DUP1 SLOAD PUSH2 0x7E6 SWAP1 PUSH2 0x20B1 JUMP JUMPDEST DUP1 ISZERO PUSH2 0x833 JUMPI DUP1 PUSH1 0x1F LT PUSH2 0x808 JUMPI PUSH2 0x100 DUP1 DUP4 SLOAD DIV MUL DUP4 MSTORE SWAP2 PUSH1 0x20 ADD SWAP2 PUSH2 0x833 JUMP JUMPDEST DUP3 ADD SWAP2 SWAP1 PUSH1 0x0 MSTORE PUSH1 0x20 PUSH1 0x0 KECCAK256 SWAP1 JUMPDEST DUP2 SLOAD DUP2 MSTORE SWAP1 PUSH1 0x1 ADD SWAP1 PUSH1 0x20 ADD DUP1 DUP4 GT PUSH2 0x816 JUMPI DUP3 SWAP1 SUB PUSH1 0x1F AND DUP3 ADD SWAP2 JUMPDEST POP POP POP POP POP DUP2 MSTORE PUSH1 0x20 ADD PUSH1 0x5 DUP3 ADD DUP1 SLOAD PUSH2 0x84C SWAP1 PUSH2 0x20B1 JUMP JUMPDEST DUP1 PUSH1 0x1F ADD PUSH1 0x20 DUP1 SWAP2 DIV MUL PUSH1 0x20 ADD PUSH1 0x40 MLOAD SWAP1 DUP2 ADD PUSH1 0x40 MSTORE DUP1 SWAP3 SWAP2 SWAP1 DUP2 DUP2 MSTORE PUSH1 0x20 ADD DUP3 DUP1 SLOAD PUSH2 0x878 SWAP1 PUSH2 0x20B1 JUMP JUMPDEST DUP1 ISZERO PUSH2 0x8C5 JUMPI DUP1 PUSH1 0x1F LT PUSH2 0x89A JUMPI PUSH2 0x100 DUP1 DUP4 SLOAD DIV MUL DUP4 MSTORE SWAP2 PUSH1 0x20 ADD SWAP2 PUSH2 0x8C5 JUMP JUMPDEST DUP3 ADD SWAP2 SWAP1 PUSH1 0x0 MSTORE PUSH1 0x20 PUSH1 0x0 KECCAK256 SWAP1 JUMPDEST DUP2 SLOAD DUP2 MSTORE SWAP1 PUSH1 0x1 ADD SWAP1 PUSH1 0x20 ADD DUP1 DUP4 GT PUSH2 0x8A8 JUMPI DUP3 SWAP1 SUB PUSH1 0x1F AND DUP3 ADD SWAP2 JUMPDEST POP POP POP POP POP DUP2 MSTORE PUSH1 0x20 ADD PUSH1 0x6 DUP3 ADD DUP1 SLOAD PUSH2 0x8DE SWAP1 PUSH2 0x20B1 JUMP JUMPDEST DUP1 PUSH1 0x1F ADD PUSH1 0x20 DUP1 SWAP2 DIV MUL PUSH1 0x20 ADD PUSH1 0x40 MLOAD SWAP1 DUP2 ADD PUSH1 0x40 MSTORE DUP1 SWAP3 SWAP2 SWAP1 DUP2 DUP2 MSTORE PUSH1 0x20 ADD DUP3 DUP1 SLOAD PUSH2 0x90A SWAP1 PUSH2 0x20B1 JUMP JUMPDEST DUP1 ISZERO PUSH2 0x957 JUMPI DUP1 PUSH1 0x1F LT PUSH2 0x92C JUMPI PUSH2 0x100 DUP1 DUP4 SLOAD DIV MUL DUP4 MSTORE SWAP2 PUSH1 0x20 ADD SWAP2 PUSH2 0x957 JUMP JUMPDEST DUP3 ADD SWAP2 SWAP1 PUSH1 0x0 MSTORE PUSH1 0x20 PUSH1 0x0 KECCAK256 SWAP1 JUMPDEST DUP2 SLOAD DUP2 MSTORE SWAP1 PUSH1 0x1 ADD SWAP1 PUSH1 0x20 ADD DUP1 DUP4 GT PUSH2 0x93A JUMPI DUP3 SWAP1 SUB PUSH1 0x1F AND DUP3 ADD SWAP2 JUMPDEST POP POP POP POP POP DUP2 MSTORE PUSH1 0x20 ADD PUSH1 0x7 DUP3 ADD DUP1 SLOAD PUSH2 0x970 SWAP1 PUSH2 0x20B1 JUMP JUMPDEST DUP1 PUSH1 0x1F ADD PUSH1 0x20 DUP1 SWAP2 DIV MUL PUSH1 0x20 ADD PUSH1 0x40 MLOAD SWAP1 DUP2 ADD PUSH1 0x40 MSTORE DUP1 SWAP3 SWAP2 SWAP1 DUP2 DUP2 MSTORE PUSH1 0x20 ADD DUP3 DUP1 SLOAD PUSH2 0x99C SWAP1 PUSH2 0x20B1 JUMP JUMPDEST DUP1 ISZERO PUSH2 0x9E9 JUMPI DUP1 PUSH1 0x1F LT PUSH2 0x9BE JUMPI PUSH2 0x100 DUP1 DUP4 SLOAD DIV MUL DUP4 MSTORE SWAP2 PUSH1 0x20 ADD SWAP2 PUSH2 0x9E9 JUMP JUMPDEST DUP3 ADD SWAP2 SWAP1 PUSH1 0x0 MSTORE PUSH1 0x20 PUSH1 0x0 KECCAK256 SWAP1 JUMPDEST DUP2 SLOAD DUP2 MSTORE SWAP1 PUSH1 0x1 ADD SWAP1 PUSH1 0x20 ADD DUP1 DUP4 GT PUSH2 0x9CC JUMPI DUP3 SWAP1 SUB PUSH1 0x1F AND DUP3 ADD SWAP2 JUMPDEST POP POP POP POP POP DUP2 MSTORE PUSH1 0x20 ADD PUSH1 0x8 DUP3 ADD DUP1 SLOAD PUSH2 0xA02 SWAP1 PUSH2 0x20B1 JUMP JUMPDEST DUP1 PUSH1 0x1F ADD PUSH1 0x20 DUP1 SWAP2 DIV MUL PUSH1 0x20 ADD PUSH1 0x40 MLOAD SWAP1 DUP2 ADD PUSH1 0x40 MSTORE DUP1 SWAP3 SWAP2 SWAP1 DUP2 DUP2 MSTORE PUSH1 0x20 ADD DUP3 DUP1 SLOAD PUSH2 0xA2E SWAP1 PUSH2 0x20B1 JUMP JUMPDEST DUP1 ISZERO PUSH2 0xA7B JUMPI DUP1 PUSH1 0x1F LT PUSH2 0xA50 JUMPI PUSH2 0x100 DUP1 DUP4 SLOAD DIV MUL DUP4 MSTORE SWAP2 PUSH1 0x20 ADD SWAP2 PUSH2 0xA7B JUMP JUMPDEST DUP3 ADD SWAP2 SWAP1 PUSH1 0x0 MSTORE PUSH1 0x20 PUSH1 0x0 KECCAK256 SWAP1 JUMPDEST DUP2 SLOAD DUP2 MSTORE SWAP1 PUSH1 0x1 ADD SWAP1 PUSH1 0x20 ADD DUP1 DUP4 GT PUSH2 0xA5E JUMPI DUP3 SWAP1 SUB PUSH1 0x1F AND DUP3 ADD SWAP2 JUMPDEST POP POP POP POP POP DUP2 MSTORE PUSH1 0x20 ADD PUSH1 0x9 DUP3 ADD DUP1 SLOAD PUSH2 0xA94 SWAP1 PUSH2 0x20B1 JUMP JUMPDEST DUP1 PUSH1 0x1F ADD PUSH1 0x20 DUP1 SWAP2 DIV MUL PUSH1 0x20 ADD PUSH1 0x40 MLOAD SWAP1 DUP2 ADD PUSH1 0x40 MSTORE DUP1 SWAP3 SWAP2 SWAP1 DUP2 DUP2 MSTORE PUSH1 0x20 ADD DUP3 DUP1 SLOAD PUSH2 0xAC0 SWAP1 PUSH2 0x20B1 JUMP JUMPDEST DUP1 ISZERO PUSH2 0xB0D JUMPI DUP1 PUSH1 0x1F LT PUSH2 0xAE2 JUMPI PUSH2 0x100 DUP1 DUP4 SLOAD DIV MUL DUP4 MSTORE SWAP2 PUSH1 0x20 ADD SWAP2 PUSH2 0xB0D JUMP JUMPDEST DUP3 ADD SWAP2 SWAP1 PUSH1 0x0 MSTORE PUSH1 0x20 PUSH1 0x0 KECCAK256 SWAP1 JUMPDEST DUP2 SLOAD DUP2 MSTORE SWAP1 PUSH1 0x1 ADD SWAP1 PUSH1 0x20 ADD DUP1 DUP4 GT PUSH2 0xAF0 JUMPI DUP3 SWAP1 SUB PUSH1 0x1F AND DUP3 ADD SWAP2 JUMPDEST POP POP POP POP POP DUP2 MSTORE PUSH1 0x20 ADD PUSH1 0xA DUP3 ADD DUP1 SLOAD PUSH2 0xB26 SWAP1 PUSH2 0x20B1 JUMP JUMPDEST DUP1 PUSH1 0x1F ADD PUSH1 0x20 DUP1 SWAP2 DIV MUL PUSH1 0x20 ADD PUSH1 0x40 MLOAD SWAP1 DUP2 ADD PUSH1 0x40 MSTORE DUP1 SWAP3 SWAP2 SWAP1 DUP2 DUP2 MSTORE PUSH1 0x20 ADD DUP3 DUP1 SLOAD PUSH2 0xB52 SWAP1 PUSH2 0x20B1 JUMP JUMPDEST DUP1 ISZERO PUSH2 0xB9F JUMPI DUP1 PUSH1 0x1F LT PUSH2 0xB74 JUMPI PUSH2 0x100 DUP1 DUP4 SLOAD DIV MUL DUP4 MSTORE SWAP2 PUSH1 0x20 ADD SWAP2 PUSH2 0xB9F JUMP JUMPDEST DUP3 ADD SWAP2 SWAP1 PUSH1 0x0 MSTORE PUSH1 0x20 PUSH1 0x0 KECCAK256 SWAP1 JUMPDEST DUP2 SLOAD DUP2 MSTORE SWAP1 PUSH1 0x1 ADD SWAP1 PUSH1 0x20 ADD DUP1 DUP4 GT PUSH2 0xB82 JUMPI DUP3 SWAP1 SUB PUSH1 0x1F AND DUP3 ADD SWAP2 JUMPDEST POP POP POP POP POP DUP2 MSTORE PUSH1 0x20 ADD PUSH1 0xB DUP3 ADD SLOAD DUP2 MSTORE POP POP DUP5 DUP7 DUP2 MLOAD DUP2 LT PUSH2 0xBC4 JUMPI PUSH2 0xBC4 PUSH2 0x20EC JUMP JUMPDEST PUSH1 0x20 SWAP1 DUP2 MUL SWAP2 SWAP1 SWAP2 ADD ADD MSTORE PUSH2 0xBDA PUSH1 0x1 DUP7 PUSH2 0x2099 JUMP JUMPDEST SWAP5 POP POP POP DUP1 DUP1 PUSH2 0xBE9 SWAP1 PUSH2 0x2102 JUMP JUMPDEST SWAP2 POP POP PUSH2 0x6B5 JUMP JUMPDEST POP SWAP4 SWAP3 POP POP POP JUMP JUMPDEST CALLER PUSH1 0x0 SWAP1 DUP2 MSTORE PUSH1 0x7 PUSH1 0x20 MSTORE PUSH1 0x40 DUP2 KECCAK256 SLOAD PUSH1 0xFF AND ISZERO ISZERO PUSH1 0x1 EQ ISZERO PUSH2 0xC1C JUMPI POP PUSH1 0x1 SWAP1 JUMP JUMPDEST POP PUSH1 0x0 SWAP1 JUMP JUMPDEST PUSH1 0x60 PUSH1 0x0 PUSH2 0xC2F PUSH1 0x3 SLOAD SWAP1 JUMP JUMPDEST SWAP1 POP PUSH1 0x0 DUP1 DUP3 PUSH1 0x1 PUSH1 0x1 PUSH1 0x40 SHL SUB DUP2 GT ISZERO PUSH2 0xC4C JUMPI PUSH2 0xC4C PUSH2 0x1933 JUMP JUMPDEST PUSH1 0x40 MLOAD SWAP1 DUP1 DUP3 MSTORE DUP1 PUSH1 0x20 MUL PUSH1 0x20 ADD DUP3 ADD PUSH1 0x40 MSTORE DUP1 ISZERO PUSH2 0xC85 JUMPI DUP2 PUSH1 0x20 ADD JUMPDEST PUSH2 0xC72 PUSH2 0x180E JUMP JUMPDEST DUP2 MSTORE PUSH1 0x20 ADD SWAP1 PUSH1 0x1 SWAP1 SUB SWAP1 DUP2 PUSH2 0xC6A JUMPI SWAP1 POP JUMPDEST POP SWAP1 POP PUSH1 0x0 JUMPDEST DUP4 DUP2 LT ISZERO PUSH2 0xBF1 JUMPI PUSH1 0x0 PUSH2 0xCA0 DUP3 PUSH1 0x1 PUSH2 0x2099 JUMP JUMPDEST PUSH1 0x0 DUP2 DUP2 MSTORE PUSH1 0x5 PUSH1 0x20 SWAP1 DUP2 MSTORE PUSH1 0x40 SWAP2 DUP3 SWAP1 KECCAK256 DUP3 MLOAD PUSH2 0x1A0 DUP2 ADD DUP5 MSTORE DUP2 SLOAD DUP2 MSTORE PUSH1 0x1 DUP3 ADD SLOAD SWAP3 DUP2 ADD SWAP3 SWAP1 SWAP3 MSTORE PUSH1 0x2 DUP2 ADD SLOAD PUSH1 0x1 PUSH1 0x1 PUSH1 0xA0 SHL SUB AND SWAP3 DUP3 ADD SWAP3 SWAP1 SWAP3 MSTORE PUSH1 0x3 DUP3 ADD DUP1 SLOAD SWAP4 SWAP5 POP SWAP2 SWAP3 SWAP1 SWAP2 DUP4 SWAP2 PUSH1 0x60 DUP5 ADD SWAP2 SWAP1 PUSH2 0xCFE SWAP1 PUSH2 0x20B1 JUMP JUMPDEST DUP1 PUSH1 0x1F ADD PUSH1 0x20 DUP1 SWAP2 DIV MUL PUSH1 0x20 ADD PUSH1 0x40 MLOAD SWAP1 DUP2 ADD PUSH1 0x40 MSTORE DUP1 SWAP3 SWAP2 SWAP1 DUP2 DUP2 MSTORE PUSH1 0x20 ADD DUP3 DUP1 SLOAD PUSH2 0xD2A SWAP1 PUSH2 0x20B1 JUMP JUMPDEST DUP1 ISZERO PUSH2 0xD77 JUMPI DUP1 PUSH1 0x1F LT PUSH2 0xD4C JUMPI PUSH2 0x100 DUP1 DUP4 SLOAD DIV MUL DUP4 MSTORE SWAP2 PUSH1 0x20 ADD SWAP2 PUSH2 0xD77 JUMP JUMPDEST DUP3 ADD SWAP2 SWAP1 PUSH1 0x0 MSTORE PUSH1 0x20 PUSH1 0x0 KECCAK256 SWAP1 JUMPDEST DUP2 SLOAD DUP2 MSTORE SWAP1 PUSH1 0x1 ADD SWAP1 PUSH1 0x20 ADD DUP1 DUP4 GT PUSH2 0xD5A JUMPI DUP3 SWAP1 SUB PUSH1 0x1F AND DUP3 ADD SWAP2 JUMPDEST POP POP POP POP POP DUP2 MSTORE PUSH1 0x20 ADD PUSH1 0x4 DUP3 ADD DUP1 SLOAD PUSH2 0xD90 SWAP1 PUSH2 0x20B1 JUMP JUMPDEST DUP1 PUSH1 0x1F ADD PUSH1 0x20 DUP1 SWAP2 DIV MUL PUSH1 0x20 ADD PUSH1 0x40 MLOAD SWAP1 DUP2 ADD PUSH1 0x40 MSTORE DUP1 SWAP3 SWAP2 SWAP1 DUP2 DUP2 MSTORE PUSH1 0x20 ADD DUP3 DUP1 SLOAD PUSH2 0xDBC SWAP1 PUSH2 0x20B1 JUMP JUMPDEST DUP1 ISZERO PUSH2 0xE09 JUMPI DUP1 PUSH1 0x1F LT PUSH2 0xDDE JUMPI PUSH2 0x100 DUP1 DUP4 SLOAD DIV MUL DUP4 MSTORE SWAP2 PUSH1 0x20 ADD SWAP2 PUSH2 0xE09 JUMP JUMPDEST DUP3 ADD SWAP2 SWAP1 PUSH1 0x0 MSTORE PUSH1 0x20 PUSH1 0x0 KECCAK256 SWAP1 JUMPDEST DUP2 SLOAD DUP2 MSTORE SWAP1 PUSH1 0x1 ADD SWAP1 PUSH1 0x20 ADD DUP1 DUP4 GT PUSH2 0xDEC JUMPI DUP3 SWAP1 SUB PUSH1 0x1F AND DUP3 ADD SWAP2 JUMPDEST POP POP POP POP POP DUP2 MSTORE PUSH1 0x20 ADD PUSH1 0x5 DUP3 ADD DUP1 SLOAD PUSH2 0xE22 SWAP1 PUSH2 0x20B1 JUMP JUMPDEST DUP1 PUSH1 0x1F ADD PUSH1 0x20 DUP1 SWAP2 DIV MUL PUSH1 0x20 ADD PUSH1 0x40 MLOAD SWAP1 DUP2 ADD PUSH1 0x40 MSTORE DUP1 SWAP3 SWAP2 SWAP1 DUP2 DUP2 MSTORE PUSH1 0x20 ADD DUP3 DUP1 SLOAD PUSH2 0xE4E SWAP1 PUSH2 0x20B1 JUMP JUMPDEST DUP1 ISZERO PUSH2 0xE9B JUMPI DUP1 PUSH1 0x1F LT PUSH2 0xE70 JUMPI PUSH2 0x100 DUP1 DUP4 SLOAD DIV MUL DUP4 MSTORE SWAP2 PUSH1 0x20 ADD SWAP2 PUSH2 0xE9B JUMP JUMPDEST DUP3 ADD SWAP2 SWAP1 PUSH1 0x0 MSTORE PUSH1 0x20 PUSH1 0x0 KECCAK256 SWAP1 JUMPDEST DUP2 SLOAD DUP2 MSTORE SWAP1 PUSH1 0x1 ADD SWAP1 PUSH1 0x20 ADD DUP1 DUP4 GT PUSH2 0xE7E JUMPI DUP3 SWAP1 SUB PUSH1 0x1F AND DUP3 ADD SWAP2 JUMPDEST POP POP POP SWAP2 DUP4 MSTORE POP POP PUSH1 0x40 DUP1 MLOAD PUSH1 0x60 DUP2 ADD DUP3 MSTORE PUSH1 0x6 DUP5 ADD SLOAD DUP2 MSTORE PUSH1 0x7 DUP5 ADD SLOAD PUSH1 0x1 PUSH1 0x1 PUSH1 0xA0 SHL SUB AND PUSH1 0x20 DUP3 DUP2 ADD SWAP2 SWAP1 SWAP2 MSTORE PUSH1 0x8 DUP6 ADD SLOAD DUP3 DUP5 ADD MSTORE DUP4 ADD MSTORE PUSH1 0x9 DUP4 ADD DUP1 SLOAD SWAP2 SWAP1 SWAP3 ADD SWAP2 SWAP1 PUSH2 0xEEC SWAP1 PUSH2 0x20B1 JUMP JUMPDEST DUP1 PUSH1 0x1F ADD PUSH1 0x20 DUP1 SWAP2 DIV MUL PUSH1 0x20 ADD PUSH1 0x40 MLOAD SWAP1 DUP2 ADD PUSH1 0x40 MSTORE DUP1 SWAP3 SWAP2 SWAP1 DUP2 DUP2 MSTORE PUSH1 0x20 ADD DUP3 DUP1 SLOAD PUSH2 0xF18 SWAP1 PUSH2 0x20B1 JUMP JUMPDEST DUP1 ISZERO PUSH2 0xF65 JUMPI DUP1 PUSH1 0x1F LT PUSH2 0xF3A JUMPI PUSH2 0x100 DUP1 DUP4 SLOAD DIV MUL DUP4 MSTORE SWAP2 PUSH1 0x20 ADD SWAP2 PUSH2 0xF65 JUMP JUMPDEST DUP3 ADD SWAP2 SWAP1 PUSH1 0x0 MSTORE PUSH1 0x20 PUSH1 0x0 KECCAK256 SWAP1 JUMPDEST DUP2 SLOAD DUP2 MSTORE SWAP1 PUSH1 0x1 ADD SWAP1 PUSH1 0x20 ADD DUP1 DUP4 GT PUSH2 0xF48 JUMPI DUP3 SWAP1 SUB PUSH1 0x1F AND DUP3 ADD SWAP2 JUMPDEST POP POP POP POP POP DUP2 MSTORE PUSH1 0x20 ADD PUSH1 0xA DUP3 ADD DUP1 SLOAD PUSH2 0xF7E SWAP1 PUSH2 0x20B1 JUMP JUMPDEST DUP1 PUSH1 0x1F ADD PUSH1 0x20 DUP1 SWAP2 DIV MUL PUSH1 0x20 ADD PUSH1 0x40 MLOAD SWAP1 DUP2 ADD PUSH1 0x40 MSTORE DUP1 SWAP3 SWAP2 SWAP1 DUP2 DUP2 MSTORE PUSH1 0x20 ADD DUP3 DUP1 SLOAD PUSH2 0xFAA SWAP1 PUSH2 0x20B1 JUMP JUMPDEST DUP1 ISZERO PUSH2 0xFF7 JUMPI DUP1 PUSH1 0x1F LT PUSH2 0xFCC JUMPI PUSH2 0x100 DUP1 DUP4 SLOAD DIV MUL DUP4 MSTORE SWAP2 PUSH1 0x20 ADD SWAP2 PUSH2 0xFF7 JUMP JUMPDEST DUP3 ADD SWAP2 SWAP1 PUSH1 0x0 MSTORE PUSH1 0x20 PUSH1 0x0 KECCAK256 SWAP1 JUMPDEST DUP2 SLOAD DUP2 MSTORE SWAP1 PUSH1 0x1 ADD SWAP1 PUSH1 0x20 ADD DUP1 DUP4 GT PUSH2 0xFDA JUMPI DUP3 SWAP1 SUB PUSH1 0x1F AND DUP3 ADD SWAP2 JUMPDEST POP POP POP POP POP DUP2 MSTORE PUSH1 0x20 ADD PUSH1 0xB DUP3 ADD SLOAD DUP2 MSTORE PUSH1 0x20 ADD PUSH1 0xC DUP3 ADD DUP1 SLOAD PUSH2 0x101A SWAP1 PUSH2 0x20B1 JUMP JUMPDEST DUP1 PUSH1 0x1F ADD PUSH1 0x20 DUP1 SWAP2 DIV MUL PUSH1 0x20 ADD PUSH1 0x40 MLOAD SWAP1 DUP2 ADD PUSH1 0x40 MSTORE DUP1 SWAP3 SWAP2 SWAP1 DUP2 DUP2 MSTORE PUSH1 0x20 ADD DUP3 DUP1 SLOAD PUSH2 0x1046 SWAP1 PUSH2 0x20B1 JUMP JUMPDEST DUP1 ISZERO PUSH2 0x1093 JUMPI DUP1 PUSH1 0x1F LT PUSH2 0x1068 JUMPI PUSH2 0x100 DUP1 DUP4 SLOAD DIV MUL DUP4 MSTORE SWAP2 PUSH1 0x20 ADD SWAP2 PUSH2 0x1093 JUMP JUMPDEST DUP3 ADD SWAP2 SWAP1 PUSH1 0x0 MSTORE PUSH1 0x20 PUSH1 0x0 KECCAK256 SWAP1 JUMPDEST DUP2 SLOAD DUP2 MSTORE SWAP1 PUSH1 0x1 ADD SWAP1 PUSH1 0x20 ADD DUP1 DUP4 GT PUSH2 0x1076 JUMPI DUP3 SWAP1 SUB PUSH1 0x1F AND DUP3 ADD SWAP2 JUMPDEST POP POP POP POP POP DUP2 MSTORE PUSH1 0x20 ADD PUSH1 0xD DUP3 ADD DUP1 SLOAD PUSH2 0x10AC SWAP1 PUSH2 0x20B1 JUMP JUMPDEST DUP1 PUSH1 0x1F ADD PUSH1 0x20 DUP1 SWAP2 DIV MUL PUSH1 0x20 ADD PUSH1 0x40 MLOAD SWAP1 DUP2 ADD PUSH1 0x40 MSTORE DUP1 SWAP3 SWAP2 SWAP1 DUP2 DUP2 MSTORE PUSH1 0x20 ADD DUP3 DUP1 SLOAD PUSH2 0x10D8 SWAP1 PUSH2 0x20B1 JUMP JUMPDEST DUP1 ISZERO PUSH2 0x1125 JUMPI DUP1 PUSH1 0x1F LT PUSH2 0x10FA JUMPI PUSH2 0x100 DUP1 DUP4 SLOAD DIV MUL DUP4 MSTORE SWAP2 PUSH1 0x20 ADD SWAP2 PUSH2 0x1125 JUMP JUMPDEST DUP3 ADD SWAP2 SWAP1 PUSH1 0x0 MSTORE PUSH1 0x20 PUSH1 0x0 KECCAK256 SWAP1 JUMPDEST DUP2 SLOAD DUP2 MSTORE SWAP1 PUSH1 0x1 ADD SWAP1 PUSH1 0x20 ADD DUP1 DUP4 GT PUSH2 0x1108 JUMPI DUP3 SWAP1 SUB PUSH1 0x1F AND DUP3 ADD SWAP2 JUMPDEST POP POP POP POP POP DUP2 MSTORE PUSH1 0x20 ADD PUSH1 0xE DUP3 ADD SLOAD DUP2 MSTORE POP POP DUP5 DUP7 DUP2 MLOAD DUP2 LT PUSH2 0x114A JUMPI PUSH2 0x114A PUSH2 0x20EC JUMP JUMPDEST PUSH1 0x20 SWAP1 DUP2 MUL SWAP2 SWAP1 SWAP2 ADD ADD MSTORE PUSH2 0x1160 PUSH1 0x1 DUP7 PUSH2 0x2099 JUMP JUMPDEST SWAP5 POP POP POP DUP1 DUP1 PUSH2 0x116F SWAP1 PUSH2 0x2102 JUMP JUMPDEST SWAP2 POP POP PUSH2 0xC8B JUMP JUMPDEST PUSH2 0x1185 PUSH1 0x3 DUP1 SLOAD PUSH1 0x1 ADD SWAP1 SSTORE JUMP JUMPDEST PUSH1 0x0 PUSH1 0x5 PUSH1 0x0 PUSH2 0x1194 PUSH1 0x3 SLOAD SWAP1 JUMP JUMPDEST DUP2 MSTORE PUSH1 0x20 ADD SWAP1 DUP2 MSTORE PUSH1 0x20 ADD PUSH1 0x0 KECCAK256 SWAP1 POP PUSH2 0x11AD PUSH1 0x3 SLOAD SWAP1 JUMP JUMPDEST DUP2 SSTORE PUSH1 0x1 DUP2 ADD DUP4 SWAP1 SSTORE DUP2 MLOAD PUSH2 0x11CB SWAP1 PUSH1 0x3 DUP4 ADD SWAP1 PUSH1 0x20 DUP6 ADD SWAP1 PUSH2 0x18AA JUMP JUMPDEST POP DUP10 MLOAD PUSH2 0x11E1 SWAP1 PUSH1 0x4 DUP4 ADD SWAP1 PUSH1 0x20 DUP14 ADD SWAP1 PUSH2 0x18AA JUMP JUMPDEST POP DUP9 MLOAD PUSH2 0x11F7 SWAP1 PUSH1 0x5 DUP4 ADD SWAP1 PUSH1 0x20 DUP13 ADD SWAP1 PUSH2 0x18AA JUMP JUMPDEST POP DUP8 MLOAD PUSH2 0x120D SWAP1 PUSH1 0x9 DUP4 ADD SWAP1 PUSH1 0x20 DUP12 ADD SWAP1 PUSH2 0x18AA JUMP JUMPDEST POP DUP7 MLOAD PUSH2 0x1223 SWAP1 PUSH1 0xD DUP4 ADD SWAP1 PUSH1 0x20 DUP11 ADD SWAP1 PUSH2 0x18AA JUMP JUMPDEST POP DUP6 MLOAD PUSH2 0x1239 SWAP1 PUSH1 0xA DUP4 ADD SWAP1 PUSH1 0x20 DUP10 ADD SWAP1 PUSH2 0x18AA JUMP JUMPDEST POP PUSH1 0xB DUP2 ADD DUP6 SWAP1 SSTORE DUP4 MLOAD PUSH2 0x1256 SWAP1 PUSH1 0xC DUP4 ADD SWAP1 PUSH1 0x20 DUP8 ADD SWAP1 PUSH2 0x18AA JUMP JUMPDEST POP PUSH1 0x2 DUP2 ADD DUP1 SLOAD PUSH1 0x1 PUSH1 0x1 PUSH1 0xA0 SHL SUB NOT AND CALLER OR SWAP1 SSTORE DUP1 PUSH1 0x5 PUSH1 0x0 PUSH2 0x1279 PUSH1 0x3 SLOAD SWAP1 JUMP JUMPDEST DUP2 MSTORE PUSH1 0x20 DUP2 ADD SWAP2 SWAP1 SWAP2 MSTORE PUSH1 0x40 ADD PUSH1 0x0 KECCAK256 DUP2 SLOAD DUP2 SSTORE PUSH1 0x1 DUP1 DUP4 ADD SLOAD SWAP1 DUP3 ADD SSTORE PUSH1 0x2 DUP1 DUP4 ADD SLOAD SWAP1 DUP3 ADD DUP1 SLOAD PUSH1 0x1 PUSH1 0x1 PUSH1 0xA0 SHL SUB NOT AND PUSH1 0x1 PUSH1 0x1 PUSH1 0xA0 SHL SUB SWAP1 SWAP3 AND SWAP2 SWAP1 SWAP2 OR SWAP1 SSTORE PUSH1 0x3 DUP1 DUP4 ADD DUP1 SLOAD SWAP2 DUP4 ADD SWAP2 PUSH2 0x12D1 SWAP1 PUSH2 0x20B1 JUMP JUMPDEST PUSH2 0x12DC SWAP3 SWAP2 SWAP1 PUSH2 0x1787 JUMP JUMPDEST POP PUSH1 0x4 DUP3 ADD DUP2 PUSH1 0x4 ADD SWAP1 DUP1 SLOAD PUSH2 0x12F1 SWAP1 PUSH2 0x20B1 JUMP JUMPDEST PUSH2 0x12FC SWAP3 SWAP2 SWAP1 PUSH2 0x1787 JUMP JUMPDEST POP PUSH1 0x5 DUP3 ADD DUP2 PUSH1 0x5 ADD SWAP1 DUP1 SLOAD PUSH2 0x1311 SWAP1 PUSH2 0x20B1 JUMP JUMPDEST PUSH2 0x131C SWAP3 SWAP2 SWAP1 PUSH2 0x1787 JUMP JUMPDEST POP PUSH1 0x6 DUP3 DUP2 ADD SLOAD SWAP1 DUP3 ADD SSTORE PUSH1 0x7 DUP1 DUP4 ADD SLOAD SWAP1 DUP3 ADD DUP1 SLOAD PUSH1 0x1 PUSH1 0x1 PUSH1 0xA0 SHL SUB NOT AND PUSH1 0x1 PUSH1 0x1 PUSH1 0xA0 SHL SUB SWAP1 SWAP3 AND SWAP2 SWAP1 SWAP2 OR SWAP1 SSTORE PUSH1 0x8 DUP1 DUP4 ADD SLOAD SWAP1 DUP3 ADD SSTORE PUSH1 0x9 DUP1 DUP4 ADD DUP1 SLOAD SWAP2 DUP4 ADD SWAP2 PUSH2 0x136B SWAP1 PUSH2 0x20B1 JUMP JUMPDEST PUSH2 0x1376 SWAP3 SWAP2 SWAP1 PUSH2 0x1787 JUMP JUMPDEST POP PUSH1 0xA DUP3 ADD DUP2 PUSH1 0xA ADD SWAP1 DUP1 SLOAD PUSH2 0x138B SWAP1 PUSH2 0x20B1 JUMP JUMPDEST PUSH2 0x1396 SWAP3 SWAP2 SWAP1 PUSH2 0x1787 JUMP JUMPDEST POP PUSH1 0xB DUP3 ADD SLOAD DUP2 PUSH1 0xB ADD SSTORE PUSH1 0xC DUP3 ADD DUP2 PUSH1 0xC ADD SWAP1 DUP1 SLOAD PUSH2 0x13B5 SWAP1 PUSH2 0x20B1 JUMP JUMPDEST PUSH2 0x13C0 SWAP3 SWAP2 SWAP1 PUSH2 0x1787 JUMP JUMPDEST POP PUSH1 0xD DUP3 ADD DUP2 PUSH1 0xD ADD SWAP1 DUP1 SLOAD PUSH2 0x13D5 SWAP1 PUSH2 0x20B1 JUMP JUMPDEST PUSH2 0x13E0 SWAP3 SWAP2 SWAP1 PUSH2 0x1787 JUMP JUMPDEST POP PUSH1 0xE SWAP2 DUP3 ADD SLOAD SWAP2 ADD SSTORE POP POP POP POP POP POP POP POP POP POP JUMP JUMPDEST PUSH1 0x0 DUP1 SLOAD PUSH1 0x40 DUP1 MLOAD PUSH4 0x3FABE5A3 PUSH1 0xE2 SHL DUP2 MSTORE SWAP1 MLOAD DUP4 SWAP3 PUSH1 0x1 PUSH1 0x1 PUSH1 0xA0 SHL SUB AND SWAP2 PUSH4 0xFEAF968C SWAP2 PUSH1 0x4 DUP1 DUP4 ADD SWAP3 PUSH1 0xA0 SWAP3 SWAP2 SWAP1 DUP3 SWAP1 SUB ADD DUP2 DUP7 DUP1 EXTCODESIZE ISZERO DUP1 ISZERO PUSH2 0x143B JUMPI PUSH1 0x0 DUP1 REVERT JUMPDEST POP GAS STATICCALL ISZERO DUP1 ISZERO PUSH2 0x144F JUMPI RETURNDATASIZE PUSH1 0x0 DUP1 RETURNDATACOPY RETURNDATASIZE PUSH1 0x0 REVERT JUMPDEST POP POP POP POP PUSH1 0x40 MLOAD RETURNDATASIZE PUSH1 0x1F NOT PUSH1 0x1F DUP3 ADD AND DUP3 ADD DUP1 PUSH1 0x40 MSTORE POP DUP2 ADD SWAP1 PUSH2 0x1473 SWAP2 SWAP1 PUSH2 0x2139 JUMP JUMPDEST POP POP POP SWAP2 POP POP PUSH2 0x1482 DUP2 PUSH2 0x172D JUMP JUMPDEST SWAP2 POP POP SWAP1 JUMP JUMPDEST PUSH2 0x1496 PUSH1 0x1 DUP1 SLOAD PUSH1 0x1 ADD SWAP1 SSTORE JUMP JUMPDEST PUSH1 0x0 PUSH1 0x4 PUSH1 0x0 PUSH2 0x14A5 PUSH1 0x1 SLOAD SWAP1 JUMP JUMPDEST DUP2 MSTORE PUSH1 0x20 ADD SWAP1 DUP2 MSTORE PUSH1 0x20 ADD PUSH1 0x0 KECCAK256 SWAP1 POP PUSH2 0x14BE PUSH1 0x1 SLOAD SWAP1 JUMP JUMPDEST DUP2 SSTORE PUSH1 0x1 DUP2 ADD DUP1 SLOAD PUSH1 0x1 PUSH1 0x1 PUSH1 0xA0 SHL SUB NOT AND CALLER OR SWAP1 SSTORE TIMESTAMP PUSH1 0x2 DUP3 ADD SSTORE DUP9 MLOAD PUSH2 0x14EF SWAP1 PUSH1 0x3 DUP4 ADD SWAP1 PUSH1 0x20 DUP13 ADD SWAP1 PUSH2 0x18AA JUMP JUMPDEST POP DUP8 MLOAD PUSH2 0x1505 SWAP1 PUSH1 0x4 DUP4 ADD SWAP1 PUSH1 0x20 DUP12 ADD SWAP1 PUSH2 0x18AA JUMP JUMPDEST POP DUP7 MLOAD PUSH2 0x151B SWAP1 PUSH1 0x5 DUP4 ADD SWAP1 PUSH1 0x20 DUP11 ADD SWAP1 PUSH2 0x18AA JUMP JUMPDEST POP DUP6 MLOAD PUSH2 0x1531 SWAP1 PUSH1 0x6 DUP4 ADD SWAP1 PUSH1 0x20 DUP10 ADD SWAP1 PUSH2 0x18AA JUMP JUMPDEST POP DUP5 MLOAD PUSH2 0x1547 SWAP1 PUSH1 0x7 DUP4 ADD SWAP1 PUSH1 0x20 DUP9 ADD SWAP1 PUSH2 0x18AA JUMP JUMPDEST POP DUP4 MLOAD PUSH2 0x155D SWAP1 PUSH1 0x8 DUP4 ADD SWAP1 PUSH1 0x20 DUP8 ADD SWAP1 PUSH2 0x18AA JUMP JUMPDEST POP DUP3 MLOAD PUSH2 0x1573 SWAP1 PUSH1 0x9 DUP4 ADD SWAP1 PUSH1 0x20 DUP7 ADD SWAP1 PUSH2 0x18AA JUMP JUMPDEST POP DUP2 MLOAD PUSH2 0x1589 SWAP1 PUSH1 0xA DUP4 ADD SWAP1 PUSH1 0x20 DUP6 ADD SWAP1 PUSH2 0x18AA JUMP JUMPDEST POP CALLER PUSH1 0x0 SWAP1 DUP2 MSTORE PUSH1 0x7 PUSH1 0x20 MSTORE PUSH1 0x40 DUP2 KECCAK256 DUP1 SLOAD PUSH1 0xFF NOT AND PUSH1 0x1 SWAP1 DUP2 OR SWAP1 SWAP2 SSTORE SLOAD DUP3 SWAP2 PUSH1 0x4 SWAP2 DUP2 MSTORE PUSH1 0x20 DUP2 ADD SWAP2 SWAP1 SWAP2 MSTORE PUSH1 0x40 ADD PUSH1 0x0 KECCAK256 DUP2 SLOAD DUP2 SSTORE PUSH1 0x1 DUP1 DUP4 ADD SLOAD SWAP1 DUP3 ADD DUP1 SLOAD PUSH1 0x1 PUSH1 0x1 PUSH1 0xA0 SHL SUB NOT AND PUSH1 0x1 PUSH1 0x1 PUSH1 0xA0 SHL SUB SWAP1 SWAP3 AND SWAP2 SWAP1 SWAP2 OR SWAP1 SSTORE PUSH1 0x2 DUP1 DUP4 ADD SLOAD SWAP1 DUP3 ADD SSTORE PUSH1 0x3 DUP1 DUP4 ADD DUP1 SLOAD SWAP2 DUP4 ADD SWAP2 PUSH2 0x1605 SWAP1 PUSH2 0x20B1 JUMP JUMPDEST PUSH2 0x1610 SWAP3 SWAP2 SWAP1 PUSH2 0x1787 JUMP JUMPDEST POP PUSH1 0x4 DUP3 ADD DUP2 PUSH1 0x4 ADD SWAP1 DUP1 SLOAD PUSH2 0x1625 SWAP1 PUSH2 0x20B1 JUMP JUMPDEST PUSH2 0x1630 SWAP3 SWAP2 SWAP1 PUSH2 0x1787 JUMP JUMPDEST POP PUSH1 0x5 DUP3 ADD DUP2 PUSH1 0x5 ADD SWAP1 DUP1 SLOAD PUSH2 0x1645 SWAP1 PUSH2 0x20B1 JUMP JUMPDEST PUSH2 0x1650 SWAP3 SWAP2 SWAP1 PUSH2 0x1787 JUMP JUMPDEST POP PUSH1 0x6 DUP3 ADD DUP2 PUSH1 0x6 ADD SWAP1 DUP1 SLOAD PUSH2 0x1665 SWAP1 PUSH2 0x20B1 JUMP JUMPDEST PUSH2 0x1670 SWAP3 SWAP2 SWAP1 PUSH2 0x1787 JUMP JUMPDEST POP PUSH1 0x7 DUP3 ADD DUP2 PUSH1 0x7 ADD SWAP1 DUP1 SLOAD PUSH2 0x1685 SWAP1 PUSH2 0x20B1 JUMP JUMPDEST PUSH2 0x1690 SWAP3 SWAP2 SWAP1 PUSH2 0x1787 JUMP JUMPDEST POP PUSH1 0x8 DUP3 ADD DUP2 PUSH1 0x8 ADD SWAP1 DUP1 SLOAD PUSH2 0x16A5 SWAP1 PUSH2 0x20B1 JUMP JUMPDEST PUSH2 0x16B0 SWAP3 SWAP2 SWAP1 PUSH2 0x1787 JUMP JUMPDEST POP PUSH1 0x9 DUP3 ADD DUP2 PUSH1 0x9 ADD SWAP1 DUP1 SLOAD PUSH2 0x16C5 SWAP1 PUSH2 0x20B1 JUMP JUMPDEST PUSH2 0x16D0 SWAP3 SWAP2 SWAP1 PUSH2 0x1787 JUMP JUMPDEST POP PUSH1 0xA DUP3 ADD DUP2 PUSH1 0xA ADD SWAP1 DUP1 SLOAD PUSH2 0x16E5 SWAP1 PUSH2 0x20B1 JUMP JUMPDEST PUSH2 0x16F0 SWAP3 SWAP2 SWAP1 PUSH2 0x1787 JUMP JUMPDEST POP PUSH1 0xB SWAP2 DUP3 ADD SLOAD SWAP2 ADD SSTORE POP POP POP POP POP POP POP POP POP JUMP JUMPDEST PUSH1 0x0 PUSH1 0x6 DUP3 PUSH1 0x40 MLOAD PUSH2 0x1717 SWAP2 SWAP1 PUSH2 0x2067 JUMP JUMPDEST SWAP1 DUP2 MSTORE PUSH1 0x20 ADD PUSH1 0x40 MLOAD DUP1 SWAP2 SUB SWAP1 KECCAK256 SLOAD SWAP1 POP SWAP2 SWAP1 POP JUMP JUMPDEST PUSH1 0x0 DUP1 DUP3 SLT ISZERO PUSH2 0x1783 JUMPI PUSH1 0x40 MLOAD PUSH3 0x461BCD PUSH1 0xE5 SHL DUP2 MSTORE PUSH1 0x20 PUSH1 0x4 DUP3 ADD DUP2 SWAP1 MSTORE PUSH1 0x24 DUP3 ADD MSTORE PUSH32 0x53616665436173743A2076616C7565206D75737420626520706F736974697665 PUSH1 0x44 DUP3 ADD MSTORE PUSH1 0x64 ADD PUSH1 0x40 MLOAD DUP1 SWAP2 SUB SWAP1 REVERT JUMPDEST POP SWAP1 JUMP JUMPDEST DUP3 DUP1 SLOAD PUSH2 0x1793 SWAP1 PUSH2 0x20B1 JUMP JUMPDEST SWAP1 PUSH1 0x0 MSTORE PUSH1 0x20 PUSH1 0x0 KECCAK256 SWAP1 PUSH1 0x1F ADD PUSH1 0x20 SWAP1 DIV DUP2 ADD SWAP3 DUP3 PUSH2 0x17B5 JUMPI PUSH1 0x0 DUP6 SSTORE PUSH2 0x1802 JUMP JUMPDEST DUP3 PUSH1 0x1F LT PUSH2 0x17C6 JUMPI DUP1 SLOAD DUP6 SSTORE PUSH2 0x1802 JUMP JUMPDEST DUP3 DUP1 ADD PUSH1 0x1 ADD DUP6 SSTORE DUP3 ISZERO PUSH2 0x1802 JUMPI PUSH1 0x0 MSTORE PUSH1 0x20 PUSH1 0x0 KECCAK256 SWAP2 PUSH1 0x1F ADD PUSH1 0x20 SWAP1 DIV DUP3 ADD JUMPDEST DUP3 DUP2 GT ISZERO PUSH2 0x1802 JUMPI DUP3 SLOAD DUP3 SSTORE SWAP2 PUSH1 0x1 ADD SWAP2 SWAP1 PUSH1 0x1 ADD SWAP1 PUSH2 0x17E7 JUMP JUMPDEST POP PUSH2 0x1783 SWAP3 SWAP2 POP PUSH2 0x191E JUMP JUMPDEST PUSH1 0x40 MLOAD DUP1 PUSH2 0x1A0 ADD PUSH1 0x40 MSTORE DUP1 PUSH1 0x0 DUP2 MSTORE PUSH1 0x20 ADD PUSH1 0x0 DUP2 MSTORE PUSH1 0x20 ADD PUSH1 0x0 PUSH1 0x1 PUSH1 0x1 PUSH1 0xA0 SHL SUB AND DUP2 MSTORE PUSH1 0x20 ADD PUSH1 0x60 DUP2 MSTORE PUSH1 0x20 ADD PUSH1 0x60 DUP2 MSTORE PUSH1 0x20 ADD PUSH1 0x60 DUP2 MSTORE PUSH1 0x20 ADD PUSH2 0x187A PUSH1 0x40 MLOAD DUP1 PUSH1 0x60 ADD PUSH1 0x40 MSTORE DUP1 PUSH1 0x0 DUP2 MSTORE PUSH1 0x20 ADD PUSH1 0x0 PUSH1 0x1 PUSH1 0x1 PUSH1 0xA0 SHL SUB AND DUP2 MSTORE PUSH1 0x20 ADD PUSH1 0x0 DUP2 MSTORE POP SWAP1 JUMP JUMPDEST DUP2 MSTORE PUSH1 0x20 ADD PUSH1 0x60 DUP2 MSTORE PUSH1 0x20 ADD PUSH1 0x60 DUP2 MSTORE PUSH1 0x20 ADD PUSH1 0x0 DUP2 MSTORE PUSH1 0x20 ADD PUSH1 0x60 DUP2 MSTORE PUSH1 0x20 ADD PUSH1 0x60 DUP2 MSTORE PUSH1 0x20 ADD PUSH1 0x0 DUP2 MSTORE POP SWAP1 JUMP JUMPDEST DUP3 DUP1 SLOAD PUSH2 0x18B6 SWAP1 PUSH2 0x20B1 JUMP JUMPDEST SWAP1 PUSH1 0x0 MSTORE PUSH1 0x20 PUSH1 0x0 KECCAK256 SWAP1 PUSH1 0x1F ADD PUSH1 0x20 SWAP1 DIV DUP2 ADD SWAP3 DUP3 PUSH2 0x18D8 JUMPI PUSH1 0x0 DUP6 SSTORE PUSH2 0x1802 JUMP JUMPDEST DUP3 PUSH1 0x1F LT PUSH2 0x18F1 JUMPI DUP1 MLOAD PUSH1 0xFF NOT AND DUP4 DUP1 ADD OR DUP6 SSTORE PUSH2 0x1802 JUMP JUMPDEST DUP3 DUP1 ADD PUSH1 0x1 ADD DUP6 SSTORE DUP3 ISZERO PUSH2 0x1802 JUMPI SWAP2 DUP3 ADD JUMPDEST DUP3 DUP2 GT ISZERO PUSH2 0x1802 JUMPI DUP3 MLOAD DUP3 SSTORE SWAP2 PUSH1 0x20 ADD SWAP2 SWAP1 PUSH1 0x1 ADD SWAP1 PUSH2 0x1903 JUMP JUMPDEST JUMPDEST DUP1 DUP3 GT ISZERO PUSH2 0x1783 JUMPI PUSH1 0x0 DUP2 SSTORE PUSH1 0x1 ADD PUSH2 0x191F JUMP JUMPDEST PUSH4 0x4E487B71 PUSH1 0xE0 SHL PUSH1 0x0 MSTORE PUSH1 0x41 PUSH1 0x4 MSTORE PUSH1 0x24 PUSH1 0x0 REVERT JUMPDEST PUSH1 0x0 DUP3 PUSH1 0x1F DUP4 ADD SLT PUSH2 0x195A JUMPI PUSH1 0x0 DUP1 REVERT JUMPDEST DUP2 CALLDATALOAD PUSH1 0x1 PUSH1 0x1 PUSH1 0x40 SHL SUB DUP1 DUP3 GT ISZERO PUSH2 0x1974 JUMPI PUSH2 0x1974 PUSH2 0x1933 JUMP JUMPDEST PUSH1 0x40 MLOAD PUSH1 0x1F DUP4 ADD PUSH1 0x1F NOT SWAP1 DUP2 AND PUSH1 0x3F ADD AND DUP2 ADD SWAP1 DUP3 DUP3 GT DUP2 DUP4 LT OR ISZERO PUSH2 0x199C JUMPI PUSH2 0x199C PUSH2 0x1933 JUMP JUMPDEST DUP2 PUSH1 0x40 MSTORE DUP4 DUP2 MSTORE DUP7 PUSH1 0x20 DUP6 DUP9 ADD ADD GT ISZERO PUSH2 0x19B5 JUMPI PUSH1 0x0 DUP1 REVERT JUMPDEST DUP4 PUSH1 0x20 DUP8 ADD PUSH1 0x20 DUP4 ADD CALLDATACOPY PUSH1 0x0 PUSH1 0x20 DUP6 DUP4 ADD ADD MSTORE DUP1 SWAP5 POP POP POP POP POP SWAP3 SWAP2 POP POP JUMP JUMPDEST PUSH1 0x0 DUP1 PUSH1 0x0 PUSH1 0x60 DUP5 DUP7 SUB SLT ISZERO PUSH2 0x19EA JUMPI PUSH1 0x0 DUP1 REVERT JUMPDEST DUP4 CALLDATALOAD SWAP3 POP PUSH1 0x20 DUP5 ADD CALLDATALOAD SWAP2 POP PUSH1 0x40 DUP5 ADD CALLDATALOAD PUSH1 0x1 PUSH1 0x1 PUSH1 0x40 SHL SUB DUP2 GT ISZERO PUSH2 0x1A0E JUMPI PUSH1 0x0 DUP1 REVERT JUMPDEST PUSH2 0x1A1A DUP7 DUP3 DUP8 ADD PUSH2 0x1949 JUMP JUMPDEST SWAP2 POP POP SWAP3 POP SWAP3 POP SWAP3 JUMP JUMPDEST PUSH1 0x1 PUSH1 0x1 PUSH1 0xA0 SHL SUB AND SWAP1 MSTORE JUMP JUMPDEST PUSH1 0x0 JUMPDEST DUP4 DUP2 LT ISZERO PUSH2 0x1A4C JUMPI DUP2 DUP2 ADD MLOAD DUP4 DUP3 ADD MSTORE PUSH1 0x20 ADD PUSH2 0x1A34 JUMP JUMPDEST DUP4 DUP2 GT ISZERO PUSH2 0x1A5B JUMPI PUSH1 0x0 DUP5 DUP5 ADD MSTORE JUMPDEST POP POP POP POP JUMP JUMPDEST PUSH1 0x0 DUP2 MLOAD DUP1 DUP5 MSTORE PUSH2 0x1A79 DUP2 PUSH1 0x20 DUP7 ADD PUSH1 0x20 DUP7 ADD PUSH2 0x1A31 JUMP JUMPDEST PUSH1 0x1F ADD PUSH1 0x1F NOT AND SWAP3 SWAP1 SWAP3 ADD PUSH1 0x20 ADD SWAP3 SWAP2 POP POP JUMP JUMPDEST PUSH1 0x0 PUSH1 0x20 DUP1 DUP4 ADD DUP2 DUP5 MSTORE DUP1 DUP6 MLOAD DUP1 DUP4 MSTORE PUSH1 0x40 SWAP3 POP DUP3 DUP7 ADD SWAP2 POP DUP3 DUP2 PUSH1 0x5 SHL DUP8 ADD ADD DUP5 DUP9 ADD PUSH1 0x0 JUMPDEST DUP4 DUP2 LT ISZERO PUSH2 0x1BE1 JUMPI PUSH1 0x3F NOT DUP10 DUP5 SUB ADD DUP6 MSTORE DUP2 MLOAD PUSH2 0x180 DUP2 MLOAD DUP6 MSTORE DUP9 DUP3 ADD MLOAD PUSH2 0x1ADE DUP11 DUP8 ADD DUP3 PUSH2 0x1A24 JUMP JUMPDEST POP DUP8 DUP3 ADD MLOAD DUP9 DUP7 ADD MSTORE PUSH1 0x60 DUP1 DUP4 ADD MLOAD DUP3 DUP3 DUP9 ADD MSTORE PUSH2 0x1AFE DUP4 DUP9 ADD DUP3 PUSH2 0x1A61 JUMP JUMPDEST SWAP3 POP POP POP PUSH1 0x80 DUP1 DUP4 ADD MLOAD DUP7 DUP4 SUB DUP3 DUP9 ADD MSTORE PUSH2 0x1B19 DUP4 DUP3 PUSH2 0x1A61 JUMP JUMPDEST SWAP3 POP POP POP PUSH1 0xA0 DUP1 DUP4 ADD MLOAD DUP7 DUP4 SUB DUP3 DUP9 ADD MSTORE PUSH2 0x1B34 DUP4 DUP3 PUSH2 0x1A61 JUMP JUMPDEST SWAP3 POP POP POP PUSH1 0xC0 DUP1 DUP4 ADD MLOAD DUP7 DUP4 SUB DUP3 DUP9 ADD MSTORE PUSH2 0x1B4F DUP4 DUP3 PUSH2 0x1A61 JUMP JUMPDEST SWAP3 POP POP POP PUSH1 0xE0 DUP1 DUP4 ADD MLOAD DUP7 DUP4 SUB DUP3 DUP9 ADD MSTORE PUSH2 0x1B6A DUP4 DUP3 PUSH2 0x1A61 JUMP JUMPDEST SWAP3 POP POP POP PUSH2 0x100 DUP1 DUP4 ADD MLOAD DUP7 DUP4 SUB DUP3 DUP9 ADD MSTORE PUSH2 0x1B86 DUP4 DUP3 PUSH2 0x1A61 JUMP JUMPDEST SWAP3 POP POP POP PUSH2 0x120 DUP1 DUP4 ADD MLOAD DUP7 DUP4 SUB DUP3 DUP9 ADD MSTORE PUSH2 0x1BA2 DUP4 DUP3 PUSH2 0x1A61 JUMP JUMPDEST SWAP3 POP POP POP PUSH2 0x140 DUP1 DUP4 ADD MLOAD DUP7 DUP4 SUB DUP3 DUP9 ADD MSTORE PUSH2 0x1BBE DUP4 DUP3 PUSH2 0x1A61 JUMP JUMPDEST PUSH2 0x160 SWAP5 DUP6 ADD MLOAD SWAP8 SWAP1 SWAP5 ADD SWAP7 SWAP1 SWAP7 MSTORE POP POP SWAP5 DUP8 ADD SWAP5 SWAP3 POP SWAP1 DUP7 ADD SWAP1 PUSH1 0x1 ADD PUSH2 0x1AB4 JUMP JUMPDEST POP SWAP1 SWAP9 SWAP8 POP POP POP POP POP POP POP POP JUMP JUMPDEST PUSH1 0x0 DUP1 PUSH1 0x40 DUP4 DUP6 SUB SLT ISZERO PUSH2 0x1C02 JUMPI PUSH1 0x0 DUP1 REVERT JUMPDEST POP POP DUP1 CALLDATALOAD SWAP3 PUSH1 0x20 SWAP1 SWAP2 ADD CALLDATALOAD SWAP2 POP JUMP JUMPDEST PUSH1 0x0 PUSH1 0x20 DUP1 DUP4 ADD DUP2 DUP5 MSTORE DUP1 DUP6 MLOAD DUP1 DUP4 MSTORE PUSH1 0x40 SWAP3 POP DUP3 DUP7 ADD SWAP2 POP DUP3 DUP2 PUSH1 0x5 SHL DUP8 ADD ADD DUP5 DUP9 ADD PUSH1 0x0 JUMPDEST DUP4 DUP2 LT ISZERO PUSH2 0x1BE1 JUMPI PUSH1 0x3F NOT DUP10 DUP5 SUB ADD DUP6 MSTORE DUP2 MLOAD PUSH2 0x1E0 DUP2 MLOAD DUP6 MSTORE DUP9 DUP3 ADD MLOAD DUP10 DUP7 ADD MSTORE DUP8 DUP3 ADD MLOAD PUSH2 0x1C6A DUP10 DUP8 ADD DUP3 PUSH2 0x1A24 JUMP JUMPDEST POP PUSH1 0x60 DUP1 DUP4 ADD MLOAD DUP3 DUP3 DUP9 ADD MSTORE PUSH2 0x1C82 DUP4 DUP9 ADD DUP3 PUSH2 0x1A61 JUMP JUMPDEST SWAP3 POP POP POP PUSH1 0x80 DUP1 DUP4 ADD MLOAD DUP7 DUP4 SUB DUP3 DUP9 ADD MSTORE PUSH2 0x1C9D DUP4 DUP3 PUSH2 0x1A61 JUMP JUMPDEST SWAP3 POP POP POP PUSH1 0xA0 DUP1 DUP4 ADD MLOAD DUP7 DUP4 SUB DUP3 DUP9 ADD MSTORE PUSH2 0x1CB8 DUP4 DUP3 PUSH2 0x1A61 JUMP JUMPDEST SWAP3 POP POP POP PUSH1 0xC0 DUP1 DUP4 ADD MLOAD PUSH2 0x1CEB DUP3 DUP9 ADD DUP3 DUP1 MLOAD DUP3 MSTORE PUSH1 0x20 DUP1 DUP3 ADD MLOAD PUSH1 0x1 PUSH1 0x1 PUSH1 0xA0 SHL SUB AND SWAP1 DUP4 ADD MSTORE PUSH1 0x40 SWAP1 DUP2 ADD MLOAD SWAP2 ADD MSTORE JUMP JUMPDEST POP POP PUSH1 0xE0 DUP3 ADD MLOAD PUSH2 0x120 DUP7 DUP4 SUB DUP2 DUP9 ADD MSTORE PUSH2 0x1D06 DUP4 DUP4 PUSH2 0x1A61 JUMP JUMPDEST SWAP3 POP PUSH2 0x100 DUP5 ADD MLOAD SWAP2 POP PUSH2 0x140 DUP8 DUP5 SUB DUP2 DUP10 ADD MSTORE PUSH2 0x1D24 DUP5 DUP5 PUSH2 0x1A61 JUMP JUMPDEST SWAP4 POP DUP2 DUP6 ADD MLOAD SWAP3 POP PUSH2 0x160 SWAP2 POP DUP3 DUP3 DUP10 ADD MSTORE DUP1 DUP6 ADD MLOAD SWAP3 POP POP PUSH2 0x180 DUP8 DUP5 SUB DUP2 DUP10 ADD MSTORE PUSH2 0x1D51 DUP5 DUP5 PUSH2 0x1A61 JUMP JUMPDEST SWAP4 POP DUP2 DUP6 ADD MLOAD SWAP3 POP DUP8 DUP5 SUB PUSH2 0x1A0 DUP10 ADD MSTORE PUSH2 0x1D6C DUP5 DUP5 PUSH2 0x1A61 JUMP JUMPDEST SWAP5 ADD MLOAD PUSH2 0x1C0 SWAP8 SWAP1 SWAP8 ADD SWAP7 SWAP1 SWAP7 MSTORE POP POP SWAP5 DUP8 ADD SWAP5 SWAP3 POP SWAP1 DUP7 ADD SWAP1 PUSH1 0x1 ADD PUSH2 0x1C38 JUMP JUMPDEST PUSH1 0x0 DUP1 PUSH1 0x0 DUP1 PUSH1 0x0 DUP1 PUSH1 0x0 DUP1 PUSH1 0x0 PUSH2 0x120 DUP11 DUP13 SUB SLT ISZERO PUSH2 0x1DAD JUMPI PUSH1 0x0 DUP1 REVERT JUMPDEST DUP10 CALLDATALOAD PUSH1 0x1 PUSH1 0x1 PUSH1 0x40 SHL SUB DUP1 DUP3 GT ISZERO PUSH2 0x1DC4 JUMPI PUSH1 0x0 DUP1 REVERT JUMPDEST PUSH2 0x1DD0 DUP14 DUP4 DUP15 ADD PUSH2 0x1949 JUMP JUMPDEST SWAP11 POP PUSH1 0x20 DUP13 ADD CALLDATALOAD SWAP2 POP DUP1 DUP3 GT ISZERO PUSH2 0x1DE6 JUMPI PUSH1 0x0 DUP1 REVERT JUMPDEST PUSH2 0x1DF2 DUP14 DUP4 DUP15 ADD PUSH2 0x1949 JUMP JUMPDEST SWAP10 POP PUSH1 0x40 DUP13 ADD CALLDATALOAD SWAP2 POP DUP1 DUP3 GT ISZERO PUSH2 0x1E08 JUMPI PUSH1 0x0 DUP1 REVERT JUMPDEST PUSH2 0x1E14 DUP14 DUP4 DUP15 ADD PUSH2 0x1949 JUMP JUMPDEST SWAP9 POP PUSH1 0x60 DUP13 ADD CALLDATALOAD SWAP2 POP DUP1 DUP3 GT ISZERO PUSH2 0x1E2A JUMPI PUSH1 0x0 DUP1 REVERT JUMPDEST PUSH2 0x1E36 DUP14 DUP4 DUP15 ADD PUSH2 0x1949 JUMP JUMPDEST SWAP8 POP PUSH1 0x80 DUP13 ADD CALLDATALOAD SWAP2 POP DUP1 DUP3 GT ISZERO PUSH2 0x1E4C JUMPI PUSH1 0x0 DUP1 REVERT JUMPDEST PUSH2 0x1E58 DUP14 DUP4 DUP15 ADD PUSH2 0x1949 JUMP JUMPDEST SWAP7 POP PUSH1 0xA0 DUP13 ADD CALLDATALOAD SWAP6 POP PUSH1 0xC0 DUP13 ADD CALLDATALOAD SWAP2 POP DUP1 DUP3 GT ISZERO PUSH2 0x1E75 JUMPI PUSH1 0x0 DUP1 REVERT JUMPDEST PUSH2 0x1E81 DUP14 DUP4 DUP15 ADD PUSH2 0x1949 JUMP JUMPDEST SWAP5 POP PUSH1 0xE0 DUP13 ADD CALLDATALOAD SWAP4 POP PUSH2 0x100 DUP13 ADD CALLDATALOAD SWAP2 POP DUP1 DUP3 GT ISZERO PUSH2 0x1E9F JUMPI PUSH1 0x0 DUP1 REVERT JUMPDEST POP PUSH2 0x1EAC DUP13 DUP3 DUP14 ADD PUSH2 0x1949 JUMP JUMPDEST SWAP2 POP POP SWAP3 SWAP6 SWAP9 POP SWAP3 SWAP6 SWAP9 POP SWAP3 SWAP6 SWAP9 JUMP JUMPDEST PUSH1 0x0 PUSH1 0x20 DUP3 DUP5 SUB SLT ISZERO PUSH2 0x1ECE JUMPI PUSH1 0x0 DUP1 REVERT JUMPDEST DUP2 CALLDATALOAD PUSH1 0x1 PUSH1 0x1 PUSH1 0xA0 SHL SUB DUP2 AND DUP2 EQ PUSH2 0x1EE5 JUMPI PUSH1 0x0 DUP1 REVERT JUMPDEST SWAP4 SWAP3 POP POP POP JUMP JUMPDEST PUSH1 0x0 DUP1 PUSH1 0x0 DUP1 PUSH1 0x0 DUP1 PUSH1 0x0 DUP1 PUSH2 0x100 DUP10 DUP12 SUB SLT ISZERO PUSH2 0x1F09 JUMPI PUSH1 0x0 DUP1 REVERT JUMPDEST DUP9 CALLDATALOAD PUSH1 0x1 PUSH1 0x1 PUSH1 0x40 SHL SUB DUP1 DUP3 GT ISZERO PUSH2 0x1F20 JUMPI PUSH1 0x0 DUP1 REVERT JUMPDEST PUSH2 0x1F2C DUP13 DUP4 DUP14 ADD PUSH2 0x1949 JUMP JUMPDEST SWAP10 POP PUSH1 0x20 DUP12 ADD CALLDATALOAD SWAP2 POP DUP1 DUP3 GT ISZERO PUSH2 0x1F42 JUMPI PUSH1 0x0 DUP1 REVERT JUMPDEST PUSH2 0x1F4E DUP13 DUP4 DUP14 ADD PUSH2 0x1949 JUMP JUMPDEST SWAP9 POP PUSH1 0x40 DUP12 ADD CALLDATALOAD SWAP2 POP DUP1 DUP3 GT ISZERO PUSH2 0x1F64 JUMPI PUSH1 0x0 DUP1 REVERT JUMPDEST PUSH2 0x1F70 DUP13 DUP4 DUP14 ADD PUSH2 0x1949 JUMP JUMPDEST SWAP8 POP PUSH1 0x60 DUP12 ADD CALLDATALOAD SWAP2 POP DUP1 DUP3 GT ISZERO PUSH2 0x1F86 JUMPI PUSH1 0x0 DUP1 REVERT JUMPDEST PUSH2 0x1F92 DUP13 DUP4 DUP14 ADD PUSH2 0x1949 JUMP JUMPDEST SWAP7 POP PUSH1 0x80 DUP12 ADD CALLDATALOAD SWAP2 POP DUP1 DUP3 GT ISZERO PUSH2 0x1FA8 JUMPI PUSH1 0x0 DUP1 REVERT JUMPDEST PUSH2 0x1FB4 DUP13 DUP4 DUP14 ADD PUSH2 0x1949 JUMP JUMPDEST SWAP6 POP PUSH1 0xA0 DUP12 ADD CALLDATALOAD SWAP2 POP DUP1 DUP3 GT ISZERO PUSH2 0x1FCA JUMPI PUSH1 0x0 DUP1 REVERT JUMPDEST PUSH2 0x1FD6 DUP13 DUP4 DUP14 ADD PUSH2 0x1949 JUMP JUMPDEST SWAP5 POP PUSH1 0xC0 DUP12 ADD CALLDATALOAD SWAP2 POP DUP1 DUP3 GT ISZERO PUSH2 0x1FEC JUMPI PUSH1 0x0 DUP1 REVERT JUMPDEST PUSH2 0x1FF8 DUP13 DUP4 DUP14 ADD PUSH2 0x1949 JUMP JUMPDEST SWAP4 POP PUSH1 0xE0 DUP12 ADD CALLDATALOAD SWAP2 POP DUP1 DUP3 GT ISZERO PUSH2 0x200E JUMPI PUSH1 0x0 DUP1 REVERT JUMPDEST POP PUSH2 0x201B DUP12 DUP3 DUP13 ADD PUSH2 0x1949 JUMP JUMPDEST SWAP2 POP POP SWAP3 SWAP6 SWAP9 POP SWAP3 SWAP6 SWAP9 SWAP1 SWAP4 SWAP7 POP JUMP JUMPDEST PUSH1 0x0 PUSH1 0x20 DUP3 DUP5 SUB SLT ISZERO PUSH2 0x203D JUMPI PUSH1 0x0 DUP1 REVERT JUMPDEST DUP2 CALLDATALOAD PUSH1 0x1 PUSH1 0x1 PUSH1 0x40 SHL SUB DUP2 GT ISZERO PUSH2 0x2053 JUMPI PUSH1 0x0 DUP1 REVERT JUMPDEST PUSH2 0x205F DUP5 DUP3 DUP6 ADD PUSH2 0x1949 JUMP JUMPDEST SWAP5 SWAP4 POP POP POP POP JUMP JUMPDEST PUSH1 0x0 DUP3 MLOAD PUSH2 0x2079 DUP2 DUP5 PUSH1 0x20 DUP8 ADD PUSH2 0x1A31 JUMP JUMPDEST SWAP2 SWAP1 SWAP2 ADD SWAP3 SWAP2 POP POP JUMP JUMPDEST PUSH4 0x4E487B71 PUSH1 0xE0 SHL PUSH1 0x0 MSTORE PUSH1 0x11 PUSH1 0x4 MSTORE PUSH1 0x24 PUSH1 0x0 REVERT JUMPDEST PUSH1 0x0 DUP3 NOT DUP3 GT ISZERO PUSH2 0x20AC JUMPI PUSH2 0x20AC PUSH2 0x2083 JUMP JUMPDEST POP ADD SWAP1 JUMP JUMPDEST PUSH1 0x1 DUP2 DUP2 SHR SWAP1 DUP3 AND DUP1 PUSH2 0x20C5 JUMPI PUSH1 0x7F DUP3 AND SWAP2 POP JUMPDEST PUSH1 0x20 DUP3 LT DUP2 EQ ISZERO PUSH2 0x20E6 JUMPI PUSH4 0x4E487B71 PUSH1 0xE0 SHL PUSH1 0x0 MSTORE PUSH1 0x22 PUSH1 0x4 MSTORE PUSH1 0x24 PUSH1 0x0 REVERT JUMPDEST POP SWAP2 SWAP1 POP JUMP JUMPDEST PUSH4 0x4E487B71 PUSH1 0xE0 SHL PUSH1 0x0 MSTORE PUSH1 0x32 PUSH1 0x4 MSTORE PUSH1 0x24 PUSH1 0x0 REVERT JUMPDEST PUSH1 0x0 PUSH1 0x0 NOT DUP3 EQ ISZERO PUSH2 0x2116 JUMPI PUSH2 0x2116 PUSH2 0x2083 JUMP JUMPDEST POP PUSH1 0x1 ADD SWAP1 JUMP JUMPDEST DUP1 MLOAD PUSH1 0x1 PUSH1 0x1 PUSH1 0x50 SHL SUB DUP2 AND DUP2 EQ PUSH2 0x2134 JUMPI PUSH1 0x0 DUP1 REVERT JUMPDEST SWAP2 SWAP1 POP JUMP JUMPDEST PUSH1 0x0 DUP1 PUSH1 0x0 DUP1 PUSH1 0x0 PUSH1 0xA0 DUP7 DUP9 SUB SLT ISZERO PUSH2 0x2151 JUMPI PUSH1 0x0 DUP1 REVERT JUMPDEST PUSH2 0x215A DUP7 PUSH2 0x211D JUMP JUMPDEST SWAP5 POP PUSH1 0x20 DUP7 ADD MLOAD SWAP4 POP PUSH1 0x40 DUP7 ADD MLOAD SWAP3 POP PUSH1 0x60 DUP7 ADD MLOAD SWAP2 POP PUSH2 0x217D PUSH1 0x80 DUP8 ADD PUSH2 0x211D JUMP JUMPDEST SWAP1 POP SWAP3 SWAP6 POP SWAP3 SWAP6 SWAP1 SWAP4 POP JUMP INVALID LOG2 PUSH5 0x6970667358 0x22 SLT KECCAK256 0xB6 STOP SWAP14 SLT 0xC8 0xB4 0xC8 SWAP5 DUP8 ADDRESS DUP1 STATICCALL 0xFB SLT SGT SWAP12 SDIV KECCAK256 XOR 0xC9 0x4D 0xD2 PUSH8 0x5EB5928CA2CF64AF JUMP PUSH5 0x736F6C6343 STOP ADDMOD MULMOD STOP CALLER "},"methodIdentifiers":{"addSponser(uint256,uint256,string)":"11678b69","createEplorer(string,string,string,string,string,string,string,string)":"e6d99532","createProject(string,string,string,string,string,uint256,string,uint256,string)":"baf3151b","doners(uint256,uint256)":"568fefbf","getCategoryPrice(string)":"ed4883f2","getEthUsd()":"bb27e0ce","getExplorer()":"4592f3f7","getProject()":"6e57b700","isRegistered(address)":"c3c5a547","isRegisteredFunc()":"4869f631"}}}}}