{
  "_format": "hh-sol-artifact-1",
  "contractName": "World3",
  "sourceName": "contracts/World3.sol",
  "abi": [
    {
      "inputs": [],
      "stateMutability": "nonpayable",
      "type": "constructor"
    },
    {
      "inputs": [
        {
          "internalType": "uint256",
          "name": "_id",
          "type": "uint256"
        },
        {
          "internalType": "uint256",
          "name": "_userId",
          "type": "uint256"
        },
        {
          "internalType": "string",
          "name": "_categoryName",
          "type": "string"
        }
      ],
      "name": "addSponser",
      "outputs": [],
      "stateMutability": "payable",
      "type": "function"
    },
    {
      "inputs": [
        {
          "internalType": "string",
          "name": "_name",
          "type": "string"
        },
        {
          "internalType": "string",
          "name": "_bio",
          "type": "string"
        },
        {
          "internalType": "string",
          "name": "_country",
          "type": "string"
        },
        {
          "internalType": "string",
          "name": "_sdgCategory",
          "type": "string"
        },
        {
          "internalType": "string",
          "name": "_image",
          "type": "string"
        },
        {
          "internalType": "string",
          "name": "_twitter",
          "type": "string"
        },
        {
          "internalType": "string",
          "name": "_youtube",
          "type": "string"
        },
        {
          "internalType": "string",
          "name": "_instagram",
          "type": "string"
        }
      ],
      "name": "createEplorer",
      "outputs": [],
      "stateMutability": "nonpayable",
      "type": "function"
    },
    {
      "inputs": [
        {
          "internalType": "string",
          "name": "_cover",
          "type": "string"
        },
        {
          "internalType": "string",
          "name": "_title",
          "type": "string"
        },
        {
          "internalType": "string",
          "name": "_country",
          "type": "string"
        },
        {
          "internalType": "string",
          "name": "_sdgCategory",
          "type": "string"
        },
        {
          "internalType": "string",
          "name": "_community",
          "type": "string"
        },
        {
          "internalType": "uint256",
          "name": "_target",
          "type": "uint256"
        },
        {
          "internalType": "string",
          "name": "_description",
          "type": "string"
        },
        {
          "internalType": "uint256",
          "name": "_explorerId",
          "type": "uint256"
        },
        {
          "internalType": "string",
          "name": "_explorerName",
          "type": "string"
        }
      ],
      "name": "createProject",
      "outputs": [],
      "stateMutability": "nonpayable",
      "type": "function"
    },
    {
      "inputs": [
        {
          "internalType": "uint256",
          "name": "",
          "type": "uint256"
        },
        {
          "internalType": "uint256",
          "name": "",
          "type": "uint256"
        }
      ],
      "name": "doners",
      "outputs": [
        {
          "internalType": "uint256",
          "name": "id",
          "type": "uint256"
        },
        {
          "internalType": "address",
          "name": "_address",
          "type": "address"
        },
        {
          "internalType": "uint256",
          "name": "amount",
          "type": "uint256"
        }
      ],
      "stateMutability": "view",
      "type": "function"
    },
    {
      "inputs": [
        {
          "internalType": "string",
          "name": "_category",
          "type": "string"
        }
      ],
      "name": "getCategoryPrice",
      "outputs": [
        {
          "internalType": "uint256",
          "name": "",
          "type": "uint256"
        }
      ],
      "stateMutability": "view",
      "type": "function"
    },
    {
      "inputs": [],
      "name": "getEthUsd",
      "outputs": [
        {
          "internalType": "uint256",
          "name": "",
          "type": "uint256"
        }
      ],
      "stateMutability": "view",
      "type": "function"
    },
    {
      "inputs": [],
      "name": "getExplorer",
      "outputs": [
        {
          "components": [
            {
              "internalType": "uint256",
              "name": "id",
              "type": "uint256"
            },
            {
              "internalType": "address payable",
              "name": "owner",
              "type": "address"
            },
            {
              "internalType": "uint256",
              "name": "dateJoined",
              "type": "uint256"
            },
            {
              "internalType": "string",
              "name": "name",
              "type": "string"
            },
            {
              "internalType": "string",
              "name": "bio",
              "type": "string"
            },
            {
              "internalType": "string",
              "name": "country",
              "type": "string"
            },
            {
              "internalType": "string",
              "name": "sdgCategory",
              "type": "string"
            },
            {
              "internalType": "string",
              "name": "image",
              "type": "string"
            },
            {
              "internalType": "string",
              "name": "twitter",
              "type": "string"
            },
            {
              "internalType": "string",
              "name": "youtube",
              "type": "string"
            },
            {
              "internalType": "string",
              "name": "instagram",
              "type": "string"
            },
            {
              "internalType": "uint256",
              "name": "amountRecieved",
              "type": "uint256"
            }
          ],
          "internalType": "struct World3.Explorer[]",
          "name": "",
          "type": "tuple[]"
        }
      ],
      "stateMutability": "view",
      "type": "function"
    },
    {
      "inputs": [],
      "name": "getProject",
      "outputs": [
        {
          "components": [
            {
              "internalType": "uint256",
              "name": "projectId",
              "type": "uint256"
            },
            {
              "internalType": "uint256",
              "name": "explorerId",
              "type": "uint256"
            },
            {
              "internalType": "address payable",
              "name": "owner",
              "type": "address"
            },
            {
              "internalType": "string",
              "name": "explorerName",
              "type": "string"
            },
            {
              "internalType": "string",
              "name": "cover",
              "type": "string"
            },
            {
              "internalType": "string",
              "name": "title",
              "type": "string"
            },
            {
              "components": [
                {
                  "internalType": "uint256",
                  "name": "id",
                  "type": "uint256"
                },
                {
                  "internalType": "address",
                  "name": "_address",
                  "type": "address"
                },
                {
                  "internalType": "uint256",
                  "name": "amount",
                  "type": "uint256"
                }
              ],
              "internalType": "struct World3.Doners",
              "name": "doners",
              "type": "tuple"
            },
            {
              "internalType": "string",
              "name": "country",
              "type": "string"
            },
            {
              "internalType": "string",
              "name": "community",
              "type": "string"
            },
            {
              "internalType": "uint256",
              "name": "target",
              "type": "uint256"
            },
            {
              "internalType": "string",
              "name": "description",
              "type": "string"
            },
            {
              "internalType": "string",
              "name": "sdgCategory",
              "type": "string"
            },
            {
              "internalType": "uint256",
              "name": "amountRecieved",
              "type": "uint256"
            }
          ],
          "internalType": "struct World3.Project[]",
          "name": "",
          "type": "tuple[]"
        }
      ],
      "stateMutability": "view",
      "type": "function"
    },
    {
      "inputs": [
        {
          "internalType": "address",
          "name": "",
          "type": "address"
        }
      ],
      "name": "isRegistered",
      "outputs": [
        {
          "internalType": "bool",
          "name": "",
          "type": "bool"
        }
      ],
      "stateMutability": "view",
      "type": "function"
    },
    {
      "inputs": [],
      "name": "isRegisteredFunc",
      "outputs": [
        {
          "internalType": "bool",
          "name": "",
          "type": "bool"
        }
      ],
      "stateMutability": "view",
      "type": "function"
    }
  ],
  "bytecode": "0x608060405234801561001057600080fd5b50600080546001600160a01b03191673d0d5e3db44de05e9f294bb0a3beeaf030de24ada1790556121bf806100466000396000f3fe6080604052600436106100815760003560e01c806311678b69146100865780634592f3f71461009b5780634869f631146100c6578063568fefbf146100eb5780636e57b7001461015e578063baf3151b14610180578063bb27e0ce146101a0578063c3c5a547146101c3578063e6d99532146101f3578063ed4883f214610213575b600080fd5b6100996100943660046119d5565b610233565b005b3480156100a757600080fd5b506100b06105e7565b6040516100bd9190611a8d565b60405180910390f35b3480156100d257600080fd5b506100db610bf9565b60405190151581526020016100bd565b3480156100f757600080fd5b5061013b610106366004611bef565b600860209081526000928352604080842090915290825290208054600182015460029092015490916001600160a01b03169083565b604080519384526001600160a01b039092166020840152908201526060016100bd565b34801561016a57600080fd5b50610173610c22565b6040516100bd9190611c11565b34801561018c57600080fd5b5061009961019b366004611d8e565b611177565b3480156101ac57600080fd5b506101b56113f6565b6040519081526020016100bd565b3480156101cf57600080fd5b506100db6101de366004611ebc565b60076020526000908152604090205460ff1681565b3480156101ff57600080fd5b5061009961020e366004611eec565b611488565b34801561021f57600080fd5b506101b561022e36600461202b565b611705565b60008311801561024557506003548311155b61024e57600080fd5b600083815260056020908152604080832085845260049092529182902091519091903490600690610280908690612067565b9081526020016040518091039020546102999190612099565b6006846040516102a99190612067565b9081526040519081900360200181209190915560028301546001600160a01b03169081903480156108fc02916000818181858888f193505050501580156102f4573d6000803e3d6000fd5b503483600e01546103059190612099565b600e840155600b82015461031a903490612099565b600b8301556000868152600560205260409020835481556001808501549082015560028085015490820180546001600160a01b0319166001600160a01b039092169190911790556003808501805486939283019190610378906120b1565b610383929190611787565b506004820181600401908054610398906120b1565b6103a3929190611787565b5060058201816005019080546103b8906120b1565b6103c3929190611787565b506006828101549082015560078083015490820180546001600160a01b0319166001600160a01b03909216919091179055600880830154908201556009808301805491830191610412906120b1565b61041d929190611787565b50600a820181600a01908054610432906120b1565b61043d929190611787565b50600b82015481600b0155600c820181600c0190805461045c906120b1565b610467929190611787565b50600d820181600d0190805461047c906120b1565b610487929190611787565b50600e9182015491015560008581526004602052604090208254815560018084015490820180546001600160a01b0319166001600160a01b039092169190911790556002808401549082015560038084018054859392830191906104ea906120b1565b6104f5929190611787565b50600482018160040190805461050a906120b1565b610515929190611787565b50600582018160050190805461052a906120b1565b610535929190611787565b50600682018160060190805461054a906120b1565b610555929190611787565b50600782018160070190805461056a906120b1565b610575929190611787565b50600882018160080190805461058a906120b1565b610595929190611787565b5060098201816009019080546105aa906120b1565b6105b5929190611787565b50600a820181600a019080546105ca906120b1565b6105d5929190611787565b50600b91820154910155505050505050565b606060006105f460015490565b9050600080826001600160401b0381111561061157610611611933565b6040519080825280602002602001820160405280156106af57816020015b61069c6040518061018001604052806000815260200160006001600160a01b03168152602001600081526020016060815260200160608152602001606081526020016060815260200160608152602001606081526020016060815260200160608152602001600081525090565b81526020019060019003908161062f5790505b50905060005b83811015610bf15760006106ca826001612099565b6000818152600460209081526040918290208251610180810184528154815260018201546001600160a01b031692810192909252600281015492820192909252600382018054939450919290918391606084019190610728906120b1565b80601f0160208091040260200160405190810160405280929190818152602001828054610754906120b1565b80156107a15780601f10610776576101008083540402835291602001916107a1565b820191906000526020600020905b81548152906001019060200180831161078457829003601f168201915b505050505081526020016004820180546107ba906120b1565b80601f01602080910402602001604051908101604052809291908181526020018280546107e6906120b1565b80156108335780601f1061080857610100808354040283529160200191610833565b820191906000526020600020905b81548152906001019060200180831161081657829003601f168201915b5050505050815260200160058201805461084c906120b1565b80601f0160208091040260200160405190810160405280929190818152602001828054610878906120b1565b80156108c55780601f1061089a576101008083540402835291602001916108c5565b820191906000526020600020905b8154815290600101906020018083116108a857829003601f168201915b505050505081526020016006820180546108de906120b1565b80601f016020809104026020016040519081016040528092919081815260200182805461090a906120b1565b80156109575780601f1061092c57610100808354040283529160200191610957565b820191906000526020600020905b81548152906001019060200180831161093a57829003601f168201915b50505050508152602001600782018054610970906120b1565b80601f016020809104026020016040519081016040528092919081815260200182805461099c906120b1565b80156109e95780601f106109be576101008083540402835291602001916109e9565b820191906000526020600020905b8154815290600101906020018083116109cc57829003601f168201915b50505050508152602001600882018054610a02906120b1565b80601f0160208091040260200160405190810160405280929190818152602001828054610a2e906120b1565b8015610a7b5780601f10610a5057610100808354040283529160200191610a7b565b820191906000526020600020905b815481529060010190602001808311610a5e57829003601f168201915b50505050508152602001600982018054610a94906120b1565b80601f0160208091040260200160405190810160405280929190818152602001828054610ac0906120b1565b8015610b0d5780601f10610ae257610100808354040283529160200191610b0d565b820191906000526020600020905b815481529060010190602001808311610af057829003601f168201915b50505050508152602001600a82018054610b26906120b1565b80601f0160208091040260200160405190810160405280929190818152602001828054610b52906120b1565b8015610b9f5780601f10610b7457610100808354040283529160200191610b9f565b820191906000526020600020905b815481529060010190602001808311610b8257829003601f168201915b50505050508152602001600b82015481525050848681518110610bc457610bc46120ec565b6020908102919091010152610bda600186612099565b945050508080610be990612102565b9150506106b5565b509392505050565b3360009081526007602052604081205460ff16151560011415610c1c5750600190565b50600090565b60606000610c2f60035490565b9050600080826001600160401b03811115610c4c57610c4c611933565b604051908082528060200260200182016040528015610c8557816020015b610c7261180e565b815260200190600190039081610c6a5790505b50905060005b83811015610bf1576000610ca0826001612099565b60008181526005602090815260409182902082516101a0810184528154815260018201549281019290925260028101546001600160a01b031692820192909252600382018054939450919290918391606084019190610cfe906120b1565b80601f0160208091040260200160405190810160405280929190818152602001828054610d2a906120b1565b8015610d775780601f10610d4c57610100808354040283529160200191610d77565b820191906000526020600020905b815481529060010190602001808311610d5a57829003601f168201915b50505050508152602001600482018054610d90906120b1565b80601f0160208091040260200160405190810160405280929190818152602001828054610dbc906120b1565b8015610e095780601f10610dde57610100808354040283529160200191610e09565b820191906000526020600020905b815481529060010190602001808311610dec57829003601f168201915b50505050508152602001600582018054610e22906120b1565b80601f0160208091040260200160405190810160405280929190818152602001828054610e4e906120b1565b8015610e9b5780601f10610e7057610100808354040283529160200191610e9b565b820191906000526020600020905b815481529060010190602001808311610e7e57829003601f168201915b5050509183525050604080516060810182526006840154815260078401546001600160a01b0316602082810191909152600885015482840152830152600983018054919092019190610eec906120b1565b80601f0160208091040260200160405190810160405280929190818152602001828054610f18906120b1565b8015610f655780601f10610f3a57610100808354040283529160200191610f65565b820191906000526020600020905b815481529060010190602001808311610f4857829003601f168201915b50505050508152602001600a82018054610f7e906120b1565b80601f0160208091040260200160405190810160405280929190818152602001828054610faa906120b1565b8015610ff75780601f10610fcc57610100808354040283529160200191610ff7565b820191906000526020600020905b815481529060010190602001808311610fda57829003601f168201915b50505050508152602001600b8201548152602001600c8201805461101a906120b1565b80601f0160208091040260200160405190810160405280929190818152602001828054611046906120b1565b80156110935780601f1061106857610100808354040283529160200191611093565b820191906000526020600020905b81548152906001019060200180831161107657829003601f168201915b50505050508152602001600d820180546110ac906120b1565b80601f01602080910402602001604051908101604052809291908181526020018280546110d8906120b1565b80156111255780601f106110fa57610100808354040283529160200191611125565b820191906000526020600020905b81548152906001019060200180831161110857829003601f168201915b50505050508152602001600e8201548152505084868151811061114a5761114a6120ec565b6020908102919091010152611160600186612099565b94505050808061116f90612102565b915050610c8b565b611185600380546001019055565b60006005600061119460035490565b815260200190815260200160002090506111ad60035490565b81556001810183905581516111cb90600383019060208501906118aa565b5089516111e190600483019060208d01906118aa565b5088516111f790600583019060208c01906118aa565b50875161120d90600983019060208b01906118aa565b50865161122390600d83019060208a01906118aa565b50855161123990600a83019060208901906118aa565b50600b8101859055835161125690600c83019060208701906118aa565b506002810180546001600160a01b03191633179055806005600061127960035490565b81526020810191909152604001600020815481556001808301549082015560028083015490820180546001600160a01b0319166001600160a01b0390921691909117905560038083018054918301916112d1906120b1565b6112dc929190611787565b5060048201816004019080546112f1906120b1565b6112fc929190611787565b506005820181600501908054611311906120b1565b61131c929190611787565b506006828101549082015560078083015490820180546001600160a01b0319166001600160a01b0390921691909117905560088083015490820155600980830180549183019161136b906120b1565b611376929190611787565b50600a820181600a0190805461138b906120b1565b611396929190611787565b50600b82015481600b0155600c820181600c019080546113b5906120b1565b6113c0929190611787565b50600d820181600d019080546113d5906120b1565b6113e0929190611787565b50600e9182015491015550505050505050505050565b6000805460408051633fabe5a360e21b8152905183926001600160a01b03169163feaf968c9160048083019260a0929190829003018186803b15801561143b57600080fd5b505afa15801561144f573d6000803e3d6000fd5b505050506040513d601f19601f820116820180604052508101906114739190612139565b5050509150506114828161172d565b91505090565b611496600180546001019055565b6000600460006114a560015490565b815260200190815260200160002090506114be60015490565b81556001810180546001600160a01b0319163317905542600282015588516114ef90600383019060208c01906118aa565b50875161150590600483019060208b01906118aa565b50865161151b90600583019060208a01906118aa565b50855161153190600683019060208901906118aa565b50845161154790600783019060208801906118aa565b50835161155d90600883019060208701906118aa565b50825161157390600983019060208601906118aa565b50815161158990600a83019060208501906118aa565b50336000908152600760205260408120805460ff19166001908117909155548291600491815260208101919091526040016000208154815560018083015490820180546001600160a01b0319166001600160a01b03909216919091179055600280830154908201556003808301805491830191611605906120b1565b611610929190611787565b506004820181600401908054611625906120b1565b611630929190611787565b506005820181600501908054611645906120b1565b611650929190611787565b506006820181600601908054611665906120b1565b611670929190611787565b506007820181600701908054611685906120b1565b611690929190611787565b5060088201816008019080546116a5906120b1565b6116b0929190611787565b5060098201816009019080546116c5906120b1565b6116d0929190611787565b50600a820181600a019080546116e5906120b1565b6116f0929190611787565b50600b91820154910155505050505050505050565b60006006826040516117179190612067565b9081526020016040518091039020549050919050565b6000808212156117835760405162461bcd60e51b815260206004820181905260248201527f53616665436173743a2076616c7565206d75737420626520706f736974697665604482015260640160405180910390fd5b5090565b828054611793906120b1565b90600052602060002090601f0160209004810192826117b55760008555611802565b82601f106117c65780548555611802565b8280016001018555821561180257600052602060002091601f016020900482015b828111156118025782548255916001019190600101906117e7565b5061178392915061191e565b604051806101a00160405280600081526020016000815260200160006001600160a01b0316815260200160608152602001606081526020016060815260200161187a60405180606001604052806000815260200160006001600160a01b03168152602001600081525090565b81526020016060815260200160608152602001600081526020016060815260200160608152602001600081525090565b8280546118b6906120b1565b90600052602060002090601f0160209004810192826118d85760008555611802565b82601f106118f157805160ff1916838001178555611802565b82800160010185558215611802579182015b82811115611802578251825591602001919060010190611903565b5b80821115611783576000815560010161191f565b634e487b7160e01b600052604160045260246000fd5b600082601f83011261195a57600080fd5b81356001600160401b038082111561197457611974611933565b604051601f8301601f19908116603f0116810190828211818310171561199c5761199c611933565b816040528381528660208588010111156119b557600080fd5b836020870160208301376000602085830101528094505050505092915050565b6000806000606084860312156119ea57600080fd5b833592506020840135915060408401356001600160401b03811115611a0e57600080fd5b611a1a86828701611949565b9150509250925092565b6001600160a01b03169052565b60005b83811015611a4c578181015183820152602001611a34565b83811115611a5b576000848401525b50505050565b60008151808452611a79816020860160208601611a31565b601f01601f19169290920160200192915050565b60006020808301818452808551808352604092508286019150828160051b87010184880160005b83811015611be157603f1989840301855281516101808151855288820151611ade8a870182611a24565b5087820151888601526060808301518282880152611afe83880182611a61565b9250505060808083015186830382880152611b198382611a61565b9250505060a08083015186830382880152611b348382611a61565b9250505060c08083015186830382880152611b4f8382611a61565b9250505060e08083015186830382880152611b6a8382611a61565b925050506101008083015186830382880152611b868382611a61565b925050506101208083015186830382880152611ba28382611a61565b925050506101408083015186830382880152611bbe8382611a61565b610160948501519790940196909652505094870194925090860190600101611ab4565b509098975050505050505050565b60008060408385031215611c0257600080fd5b50508035926020909101359150565b60006020808301818452808551808352604092508286019150828160051b87010184880160005b83811015611be157603f1989840301855281516101e081518552888201518986015287820151611c6a89870182611a24565b506060808301518282880152611c8283880182611a61565b9250505060808083015186830382880152611c9d8382611a61565b9250505060a08083015186830382880152611cb88382611a61565b9250505060c080830151611ceb82880182805182526020808201516001600160a01b031690830152604090810151910152565b505060e082015161012086830381880152611d068383611a61565b9250610100840151915061014087840381890152611d248484611a61565b9350818501519250610160915082828901528085015192505061018087840381890152611d518484611a61565b93508185015192508784036101a0890152611d6c8484611a61565b9401516101c09790970196909652505094870194925090860190600101611c38565b60008060008060008060008060006101208a8c031215611dad57600080fd5b89356001600160401b0380821115611dc457600080fd5b611dd08d838e01611949565b9a5060208c0135915080821115611de657600080fd5b611df28d838e01611949565b995060408c0135915080821115611e0857600080fd5b611e148d838e01611949565b985060608c0135915080821115611e2a57600080fd5b611e368d838e01611949565b975060808c0135915080821115611e4c57600080fd5b611e588d838e01611949565b965060a08c0135955060c08c0135915080821115611e7557600080fd5b611e818d838e01611949565b945060e08c013593506101008c0135915080821115611e9f57600080fd5b50611eac8c828d01611949565b9150509295985092959850929598565b600060208284031215611ece57600080fd5b81356001600160a01b0381168114611ee557600080fd5b9392505050565b600080600080600080600080610100898b031215611f0957600080fd5b88356001600160401b0380821115611f2057600080fd5b611f2c8c838d01611949565b995060208b0135915080821115611f4257600080fd5b611f4e8c838d01611949565b985060408b0135915080821115611f6457600080fd5b611f708c838d01611949565b975060608b0135915080821115611f8657600080fd5b611f928c838d01611949565b965060808b0135915080821115611fa857600080fd5b611fb48c838d01611949565b955060a08b0135915080821115611fca57600080fd5b611fd68c838d01611949565b945060c08b0135915080821115611fec57600080fd5b611ff88c838d01611949565b935060e08b013591508082111561200e57600080fd5b5061201b8b828c01611949565b9150509295985092959890939650565b60006020828403121561203d57600080fd5b81356001600160401b0381111561205357600080fd5b61205f84828501611949565b949350505050565b60008251612079818460208701611a31565b9190910192915050565b634e487b7160e01b600052601160045260246000fd5b600082198211156120ac576120ac612083565b500190565b600181811c908216806120c557607f821691505b602082108114156120e657634e487b7160e01b600052602260045260246000fd5b50919050565b634e487b7160e01b600052603260045260246000fd5b600060001982141561211657612116612083565b5060010190565b80516001600160501b038116811461213457600080fd5b919050565b600080600080600060a0868803121561215157600080fd5b61215a8661211d565b945060208601519350604086015192506060860151915061217d6080870161211d565b9050929550929590935056fea2646970667358221220b6009d12c8b4c894873080fafb12139b052018c94dd2675eb5928ca2cf64af5664736f6c63430008090033",
  "linkReferences": {},
  "deployedLinkReferences": {}
}